:020000040800F2
:10000000C835002099010008AF2B000869220008BC
:10001000AD2B000859030008E5310008000000007E
:1000200000000000000000000000000001010008C6
:100030009F0300080000000045010008292D00086A
:10004000B3010008B3010008B3010008B3010008C0
:10005000B3010008B3010008B3010008B3010008B0
:10006000B3010008B3010008B3010008B3010008A0
:10007000B3010008B30100085D030008690300082C
:10008000B3010008B3010008B3010008B301000880
:10009000B3010008B3010008B3010008B301000870
:1000A000B3010008B3010008B3010008B301000860
:1000B000B3010008B3010008E52D0008B3010008F2
:1000C000B3010008B3010008B3010008B301000840
:1000D000B3010008CD310008B3010008B3010008E6
:1000E000B3010008B3010008B3010008DFF80CD029
:1000F00000F0ECF800480047F1350008C835002052
:10010000224B19680868B0E8F00F80F30988BFF344
:100110006F8F4FF0000080F311884EF00D0E704786
:100120000000000006480068006880F3088862B696
:1001300061B6BFF34F8FBFF36F8F00DF00BF00BF0B
:1001400008ED00E0EFF30980BFF36F8F0F4B1A68E3
:1001500020E9F00F106008B54FF0500080F31188CF
:10016000BFF34F8FBFF36F8F04F07AF94FF00000A9
:1001700080F31188BDE8084019680868B0E8F00FFE
:1001800080F30988BFF36F8F704700BF60000020C5
:10019000EFF3058070470000064880470648004797
:1001A000FEE7FEE7FEE7FEE7FEE7FEE7FEE7FEE727
:1001B000FEE7FEE79D2D0008ED000008202A04DB85
:1001C000203A21FA02F00021704721FA02F3D040D0
:1001D000C2F12002914008431946704740EA0103EA
:1001E0009B0703D009E008C9121F08C0042AFAD2ED
:1001F00003E011F8013B00F8013B521EF9D27047B1
:10020000D2B201E000F8012B491EFBD27047002258
:10021000F6E710B513460A4604461946FFF7F0FF05
:10022000204610BD30B505462A460B4612F8010B94
:1002300013F8014B08B1A042F8D01CB1002802D03D
:100240006D1CF1E7284630BD10B5044604E00B787C
:1002500000F8013B03B1491C521EF8D2204610BDE4
:10026000CAB2401E10F8011F8A4202D00029F9D1FB
:1002700000207047421C10F8011B0029FBD1801A96
:10028000704730B505460020034600E05B1C9342F2
:1002900005D2EC5CC85C201A01D1002CF6D130BD2F
:1002A00030B50B46014600202022012409E021FA46
:1002B00002F59D4205D303FA02F5491B04FA02F543
:1002C0002844151EA2F10102F1DC30BD064C074D99
:1002D00006E0E06840F0010394E807009847103416
:1002E000AC42F6D3FFF706FF5450000874500008E4
:1002F00070B50446FF20002231250FE0A35C584072
:100300000823060602D585EA400000E040005B1E97
:10031000C0B213F0FF03F4D1521CD2B28A42EDD323
:1003200070BD00000A4908B5BA20087004F090F8C2
:100330004FF4807000900123054A7021054801F0B8
:100340002BF804F033FDBDE80840142003F094B905
:1003500060010020E0010020FEE70000014800F0FD
:10036000B7BB0000C8070020014800F0B1BB000087
:100370008407002030B590F840500124AC40C56B94
:100380006C60046863604368102B036803D0996055
:100390000068C26030BD9A600068C16030BD7047BF
:1003A00006490020C8610648016941F00401016165
:1003B000016941F0400101617047000050080020D0
:1003C00000200240064A0021D16106490A6942F034
:1003D00002020A614861086940F040000861704704
:1003E0005008002000200240044B0022DA61044A39
:1003F000136943F001031361018070475008002026
:100400000020024014480022C168CB06134904D5DD
:10041000CA6942F00202CA611022C3685B0705D5AF
:10042000CB6943F00103CB6142F00402C369DB07EF
:1004300007D0CB6943F00403CB61C16921F001010E
:10044000C161A2F58071013901D0C2607047C169F4
:1004500021F00101C16170470020024050080020D6
:1004600070B5054600F0EAFD0646114C09E0681C2F
:1004700007D025B100F0E2FD801BA84201D903207E
:1004800070BDE068C007F2D1E068800601D5202089
:10049000E060E068C00605D4E069C00702D1E0680A
:1004A000400703D5FFF7AEFF012070BD002070BDEF
:1004B0000020024010B5002306E000BF32F8024FD2
:1004C00020F813405B1CDBB28B42F7D310BD000059
:1004D0002DE9F04186B000260F4680460F4D344688
:1004E000009600F0B9FC01200196CDE90350694661
:1004F00001A800F013FC09E0AD1C38F8142000231B
:100500002946012000F068FC641CE4B2BC42F3D32D
:1005100000F058FC009806B0BDE8F08100C000086B
:10052000012003F0A9F80E4D4FF0FF342146286A50
:1005300003F0EAF802F04CFB0A4890F8A1005528B5
:100540000BD002F053F82146286A03F0DDF802F0E0
:1005500069FB642003F090F8F5E702F07DF9F2E71B
:1005600000000020B0000020FFF7DCFE094C4FF433
:10057000FA6500BF94F89A00012801D100F0FAF959
:1005800094F89B00012801D100F0B8F9284603F047
:1005900073F8EFE7B00000204FF47A74204603F0C0
:1005A0006BF8FBE7012003F067F83B4E4FF0FF3498
:1005B0002146B06A03F0A8F8A046384C384D04F143
:1005C00009074146B06A03F09FF82079A5285FD15A
:1005D00060795A285CD1E079032859D1207A0E2815
:1005E00056D2DFE800F055070E181D252D31363A9A
:1005F0003E42464A3846FFF73DFE421C39462848EF
:1006000006E03846FFF736FE421C254839464030A2
:10061000FFF71AFE3CE0B4F80900A5F8540037E0F3
:100620003846FFF727FE421C1D4839465630EFE793
:100630003846FFF71FFE421C194839467630E7E777
:10064000607A85F8960023E0B4F80900A5F89800D0
:100650001EE0607A85F89A001AE0607A85F89B00BF
:1006600016E0607A85F89C0012E0607A85F89D00BB
:100670000EE0607A85F89E000AE0607A85F89F00B7
:10068000012805D1022085F89F00306A03F014F894
:10069000012002F0F1FF94E7000000204003002059
:1006A000B000002086B0002702970397012004972E
:1006B00002F0E2FF774D791EE86903F025F842F673
:1006C000E06002F0D9FF744CDFF8D0A104F14000E3
:1006D0004FF002084FF480794FF0A50BCDF80400DD
:1006E0004FF0FF31E86903F00FF8B4F8980029885B
:1006F00000EB80004000B1FBF0F200FB121000287C
:1007000053D167A24946654802F098FD6348FFF758
:10071000B1FD82B26149664801F064FD4FF4FA60B0
:1007200002F0AAFF63A16548FFF77CFD06462C2175
:10073000C01DFFF795FD0090B4F8543060A20A2167
:1007400002A802F07BFD96B10198FFF793FD0246E7
:10075000F01D0199FFF795FD48B902A8FFF78AFD42
:100760000246009802A9401CFFF78BFDD0B102970A
:100770000397049784F8A080B4F85400009051A225
:1007800049464648019B02F059FD4448FFF772FD77
:1007900082B24249464801F025FD41F2883002F01C
:1007A0006BFF02E0012084F8A000B4F898002A88CA
:1007B000B2FBF0F100FB112080BB94F896000128F9
:1007C0002CD194F8A000012828D1122345A2494633
:1007D000324802F033FD3148FFF74CFD82B22F4919
:1007E000334801F0FFFCC82002F046FF8AF800B051
:1007F0005A218AF801100F218AF802108AF8038022
:100800000E223D490AF10400FFF7E8FC12222349B9
:10081000274801F0E7FCC82002F02EFFB4F898004A
:100820002A8800EB4000B2FBF0F100FB112068BB0E
:1008300094F8A000012829D1A6232AA249461748E6
:1008400002F0FCFC1548FFF715FD82B21349184869
:1008500001F0C8FCC82002F00FFF8AF800B05A214E
:100860008AF80110A3218AF8021003218AF80310E4
:10087000A22209490AF10400FFF7B0FCA6220749A9
:100880000B4801F0AFFCC82002F0F6FE012002F098
:10089000F3FE25E700000020B00000204002002009
:1008A00041542B4349505354415455530D0A0000B1
:1008B000440700202254435022000000440300203B
:1008C0002564000041542B43495053544152543D38
:1008D000322C22544350222C222573222C2568646A
:1008E0000D0A000041542B43495053454E443D32BC
:1008F0002C25640D0A0000005201002038B51B4869
:10090000002101700221417003F0A2FD4FF48074B8
:100910000223164A22211648009400F03DFD04F0FF
:1009200045FA052002F0A8FE03F092FD0F4A0323CA
:10093000403223210E48009400F026FC04F036FAE1
:100940000A4802214030FFF7D3FC084940318A7839
:10095000824209D10878A1F14E024FF6FF7349781F
:1009600003EA00200844908038BD000060010020A8
:10097000E001002038B52248AC21017033214170DC
:100980000021817003F064FD4FF4807403231C4A3E
:1009900070211C48009400F0FFFC04F007FA64206A
:1009A00002F06AFE03F054FD154A0623403271211D
:1009B0001448009400F0E8FB04F0F8F910484030C7
:1009C00041788278C37802EB0121090141EA1311D1
:1009D0004FF47A725143A0F14E02090D518019076C
:1009E0000379407903EB115100EB01204FF4FA61D8
:1009F00048434FF60C6101EB1050108038BD0000E9
:100A000060010020E001002001680A6822F00E0267
:100A10000A6001680A6822F001020A6090F840202A
:100A2000C36B012101FA02F25A6080F82110002103
:100A300080F820100846704710B590F82110002467
:100A4000022903D00421816301243DE001680A6882
:100A500022F00E020A6001680A6822F001020A60B0
:100A60001A4A0168914201D1012121E0174A14324A
:100A7000914201D110211BE0144A2832914201D148
:100A8000891515E0114A3C32914201D189140FE0D9
:100A90000E4A5032914202D14FF4803108E00B4AA5
:100AA0006432914202D14FF4801101E04FF0807125
:100AB000064A083A5160012180F82110002180F88F
:100AC0002010416B01B18847204610BD080002404C
:100AD0002DE9F05FC16B0C6801680B68D0F840C06D
:100AE000042202FA0CF2494DDFF824A1494E4A4F84
:100AF000DFF828B1DFF828E122422CD05A072AD5A6
:100B00000A68920603D40A6822F004020A600168A7
:100B1000A94201D1042219E0514501D1402215E03A
:100B2000B14202D14FF4806210E0B94202D14FF4D9
:100B300080420BE0594502D14FF4802206E0714516
:100B400002D14FF4800201E04FF080622F49083952
:100B50004A60C16A3BE04FF0020808FA0CF818EA54
:100B6000040F4FF000094FF0010235D05FEA83789F
:100B700032D50B689B0605D40B6823F00A030B6083
:100B800080F821200168A94201D1022219E05145D3
:100B900001D1202215E0B14202D14FF4007210E0E1
:100BA000B94202D14FF400520BE0594502D14FF443
:100BB000003206E0714502D14FF4001201E04FF01F
:100BC0000072124908394A6080F82090816A002931
:100BD0001AD0BDE8F05F0847082505FA0CF5254254
:100BE00012D01B0710D50B6823F00E030B6090F892
:100BF0004010C36B02FA01F15960826380F8212032
:100C000080F82090016BE2E7BDE8F09F0800024009
:100C10001C000240300002404400024058000240E4
:100C20006C00024030B548B308C815491422194475
:100C3000B1FBF2F18900C16312498163022141775E
:100C40001A6843F6F0718A43D0E900142143D0E9D1
:100C500002452C43214304692143446921438469AB
:100C6000214311431960002141628162C162016325
:100C70004163012242770177084630BD012030BD33
:100C8000F8FFFDBF0000024070B5044690F8200058
:100C9000002501280CD0012084F8200094F8216060
:100CA0000020012E06D084F820000225284670BDC1
:100CB000022070BD022684F82160A06320680668C7
:100CC00026F0010606602046FFF754FBE06A002884
:100CD0002068016802D041F00E0106E021F0040115
:100CE00001602068016841F00A0101602068016824
:100CF00041F001010160D9E770B5044600F09EF9AA
:100D00000546601C02D004480078044400F096F9BF
:100D1000401BA042FAD370BD2C0000202DE9F04703
:100D2000054626480F460126017E01290FD00121E4
:100D3000814601762868DFF888804CF2503402281A
:100D400008D0A2462046FFF78BFBA8B131E0022075
:100D5000BDE8F0872046FFF783FB08BB0120FFF7C3
:100D60001FFB2046FFF77CFBD8F81010064621F049
:100D70000401C8F810101CE04FF0FF303860AC6878
:100D800011E02046FFF71EFB5046FFF769FBD8F83D
:100D90001010060021F00201C8F8101001D03C60CC
:100DA00007E004F58064D5E9020100EB8120A04250
:100DB000E7D8002189F818103046C9E7500800200C
:100DC000002002400348016941F0800101610020D8
:100DD00070470000002002402DE9F05F07461C48E4
:100DE00088460024017E15461E46012909D00121AE
:100DF000814601764CF2503A5046FFF731FB18B16C
:100E000022E00220BDE8F09F012F02D0022F00D087
:100E10000427D346DFF83CA0220128463146FFF7DD
:100E2000CDF981B208EB4400FFF7DEFA5846FFF730
:100E300017FBDAF8102022F00102CAF8102018B9C6
:100E4000641CE4B2BC42E7D3002289F81820D9E739
:100E50005008002000200240064900200A691206BE
:100E600007D5054A4A60054A4A600969090600D55E
:100E7000012070470020024023016745AB89EFCD78
:100E80002DE9F84FDFF890A100220AF1040B144677
:100E900001274FF00F090BF1040E00BF0B6807FA92
:100EA00004F52B40AB4274D1DFF870C14E68A6EB5D
:100EB0000C0866452BD00DDC032E34D005DC36B390
:100EC000012E19D0022E2FD11BE0112E16D0122E7A
:100ED0002AD119E0B8F5881F19D006DCB8F5803F93
:100EE00015D0B8F5801F1FD111E0B8F5001F0ED046
:100EF000B8F5041F18D10AE0CA6815E0CA68121DC7
:100F000012E0CA6808320FE0CA680C320CE08A6846
:100F10002AB1012A4FF0080203D0456104E00422FF
:100F200002E0056100E00022FF2B01D8064601E047
:100F300000F104064FEA840501D9A5F12005D6F891
:100F400000C009FA05F82CEA080C02FA05F54CEA8B
:100F5000050CC6F800C04D68ED0057D5304DAE69A0
:100F600046F00106AE61AD6924F0030605F0010507
:100F700000952C4D06EB050CDCF80850A6074FEA4F
:100F8000167809FA08F6B543274EB04202D100267A
:100F900010E03BE0254EB04201D101260AE0244E8C
:100FA000B04201D1022605E0224EB04201D1032613
:100FB00000E0042606FA08F62E43CCF808604D68D7
:100FC000DAF80060ED03554601D51E4300E09E436C
:100FD0002E604D68DBF80060AD035D4601D51E4311
:100FE00000E09E432E604D68DEF80060ED0275461D
:100FF00001D51E4300E09E432E604D68AD020E4DAC
:101000002E6801D51E4300E09E432E60641C102C08
:10101000FFF444AFBDE8F88F000401400000111058
:10102000001002400000014000080140000C014097
:1010300000100140001401400C0401400148806888
:10104000704700002C00002070B504001BD094F8FD
:101050003D00002520B984F83C50204600F038FAC5
:10106000242084F83D002068016821F0010101601E
:1010700000F032FC404A6168914201D83F4900E0EB
:101080003F49884201D2012070BD3E492368B0FB30
:10109000F1F159606368934206D94FF4967359434E
:1010A0004FF47A73B1FBF3F12368491C196261684C
:1010B000914210D84900401EB0FBF1F2521CC2F31D
:1010C0000B02042A01D2042022E0B0FBF1F0401C04
:1010D000C0F30B001CE0A368CBB301EBC10202EB31
:1010E0000116421EB2FBF6F2521C42F48042120577
:1010F00036D06BB301EBC10202EB0111401EB0FB15
:10110000F1F0401CC0F30B0040F4804040F400407C
:101110002168C861D4E90701084321680860D4E95F
:101120000310084321688860D4E905010843216859
:10113000C8602068016841F0010101602564202039
:1011400084F83D00256384F83E50002070BD00E027
:1011500008E001EB4106421EB2FBF6F2521CC6E764
:101160000120D5E701EB4101401EB0FBF1F0401C2E
:10117000C0F30B00CAE70000A086010080841E00B7
:1011800000093D0040420F002DE9F84F1F469046F0
:101190008A460446DDF82890FFF750FF054694F88C
:1011A0003D0020287ED11923012278492046009550
:1011B00001F04FF90028F5D194F83C00012871D0D6
:1011C000012084F83C0020680168C90703D1016848
:1011D00041F0010101602068016821F400610160B3
:1011E000222084F83D00102084F83E00002626646A
:1011F000C4F8248067856648E062608D20852B46B0
:101200004A465146204601F044F828B1206C84F843
:101210003C60042850D073E0208D5E4F68B10128F7
:1012200014D00228206801681ED041F4806101605A
:1012300020684169806900909AE02068416981696D
:101240000091016841F40071016091E0206801683B
:1012500021F48061016072B6206841698169009162
:10126000016841F400710AE041F40061016072B666
:101270002068416981690091016821F48061016001
:1012800062B675E0032850D801280CD002284B46DE
:101290004FF0000239462046009512D001F0D9F8EF
:1012A00070BB13E070E02A464946204601F046F93B
:1012B00028B1206C202823D00120BDE8F88F2068B9
:1012C0004BE001F0C6F8D8B972B61BE0206801689F
:1012D00021F48061016072B620680169606A421C75
:1012E00062620170208D401E2085608D401E6085E9
:1012F0004B46002239462046009501F0AAF808B175
:101300000320DAE72068016841F400710160206879
:101310000169606A421C62620170208D401E208556
:10132000608D401E608562B6C9E72A464946204660
:1013300001F004F90028BCD120680169606A421CF0
:1013400062620170208D401E2085608D401E608588
:1013500020684169C94349070AD40169606A421C8F
:1013600062620170208D401E2085608D401E608568
:10137000208D002886D1202084F83D0084F83E602E
:1013800084F83C60002098E7022096E702001000F5
:101390000000FFFF040001002DE9F84F1F469046B2
:1013A0008A460446DDF82890FFF748FE064694F882
:1013B0003D0020287ED11923012243492046009672
:1013C00001F047F800287DD194F83C00012879D03D
:1013D000012084F83C0020680168C90703D1016836
:1013E00041F0010101602068016821F400610160A1
:1013F000212084F83D00102084F83E00002525645B
:10140000C4F8248067853148E062608D20853346CA
:101410004A465146204600F0ABFF28B1206C84F8C4
:101420003C5004284CD00DE0206841698069009050
:1014300030E032464946204601F0B1F828B1206C30
:10144000042838D00320BDE8F88F606A411C61622F
:10145000216800780861608D401E6085208D401EE7
:1014600080B2208521684A69D24352070BD450B11B
:10147000606A421C626200780861608D401E60856F
:10148000208D401E208532464946204600F0BAFF96
:101490000028D4D1208D0028CBD154F83D0B016811
:1014A00041F400710160202004F81E09E57765779A
:1014B0000020C8E706E02068016841F4007101607F
:1014C0000120C0E70220BEE7020010000000FFFF7D
:1014D00010B50068104986B088421AD10F4CE069F7
:1014E00040F40010E061E069694600F400100490E7
:1014F000C020009012200190032003900848FFF7BD
:10150000BFFCE06940F40010E061E06900F4001005
:10151000049006B010BD00000054004000100240CE
:10152000000C014070B5040011D021684CF6CC408D
:101530000860216845F255500860D4E90001416017
:101540002168A0688860FFF779FD054609E0012061
:1015500070BD00BFFFF772FD401B302801D903208A
:1015600070BD2068C0680028F4D121684AF6AA201E
:101570000860002070BD00684AF6AA2101600020C2
:10158000704700000248816802781144816070470A
:101590002C000020074810B5016841F010010160DF
:1015A000032000F0B7F8002000F006F800F03EF845
:1015B000002010BD0020024000B5014687B0002287
:1015C0001E2000F087F81E2000F078F81348C1694B
:1015D00041F00401C161C06905A900F00400069052
:1015E000684600F053F900F077F90D494000B0FB70
:1015F000F1F10D480B4A491E0260416040F2E732AA
:101600000021C0E90321816000F060FB10B10120DE
:1016100007B000BD044800F075FBF9E70010024078
:1016200040420F00000800400C080020214808B587
:10163000816941F001018161816901F0010100913D
:10164000C16941F08051C161C06900F080500090D3
:10165000032000F05FF8002211466FF00B0000F04D
:1016600039F8002211466FF00A0000F033F800222A
:1016700011466FF0090000F02DF800221146501FAE
:1016800000F028F800221146101F00F023F8002275
:101690000F21901E00F01EF800220F21501E00F0B6
:1016A00019F80548416821F0E06141F0007141609E
:1016B00008BD0000001002400000014000F01F02C1
:1016C000012191404009800000F1E020C0F80011A4
:1016D00070470000F0B40E4B1B680C46C3F30223A6
:1016E000C3F10705042D00D90425191D072901D2CE
:1016F000002300E0DB1E012606FA05F1491E214009
:1017000099409E40761E16403143F0BC01F050BA1D
:101710000CED00E0064900F0070208684FF6FF03F1
:10172000184040EA0220034A104308607047000056
:101730000CED00E00000FA052DE9F047DFF83C81F0
:1017400005460E46D8F8000000F00700B0420CD263
:10175000D8F8001021F007013143C8F80010D8F87C
:10176000000000F00700B04263D12878444C8007A5
:1017700005D56068A96820F0F0000843606028780B
:10178000C00745D06868012816D02168022816D005
:10179000890700294DDA616821F003010143616086
:1017A000FFF74CFC6968074641F2883001290FD0E9
:1017B0000229814619D027E021688903E9E78901D8
:1017C000E7E700BFFFF73AFCC11B494501D918E024
:1017D00081466068C0F381000128F3D118E000BFA2
:1017E000FFF72CFCC11B49450BD86068C0F3810092
:1017F0000228F5D10CE000BFFFF720FCC11B4945D2
:1018000002D90320BDE8F087606810F00C0FF3D117
:10181000D8F80010404601F00701B1420BD9016829
:1018200021F0070131430160006800F00700B04279
:1018300001D00120E6E72878400705D56068E9680F
:1018400020F4E060084360602878000706D56068EF
:10185000296920F4605040EAC100606000F05CF843
:101860006168084AC1F30311515CC8400649086029
:101870000020FFF7A1FE0020C4E700000020024086
:1018800000100240D04F0008380000200F220260F4
:101890000C4A536803F003034360536803F0F003FA
:1018A0008360536803F4E063C36052684FF4E063FD
:1018B00003EAD20202610448006800F007000860F1
:1018C00070470000001002400020024001480068FC
:1018D0007047000038000020044805490068496846
:1018E000044AC1F30221515CC8407047380000200F
:1018F00000100240E04F00080448054900684968AC
:10190000044AC1F3C221515CC8407047380000202E
:1019100000100240E04F000812A185B00FC98DE809
:101920000F0014A0144A006804905168134801F095
:101930000C03042B10D0082B0ED1C1F38343C90331
:101940001DF803000AD5516804AAC1F34041515C57
:101950000A4A5043B0FBF1F005B0704708494843CC
:10196000FAE7000002030405060708090A0B0C0D3C
:101970000E0F1010010200000010024000127A0049
:1019800000093D002DE9F84F04460078B94DC00725
:1019900048D06868C0F38100012807D06868C0F3A8
:1019A0008100022809D16868C00306D52868800331
:1019B00038D5606800286FD034E06068B0F5803FAB
:1019C0000BD010B1B0F5A02F11D0286820F48030D2
:1019D0002860286820F4802002E0286840F48030E5
:1019E0002860606888B1FFF729FB064609E028688F
:1019F00040F480202860F0E7FFF720FB801B64287C
:101A000075D828688003F7D50CE0FFF717FB06466A
:101A100005E000BFFFF712FB801B6428F0D82868A0
:101A20008003F7D42078944E80074FF001094FF0DF
:101A300000083BD5686810F00C0F07D06868C0F349
:101A40008100022809D16868C00306D4286880078D
:101A500014D5206901281FD110E02069B0B1C6F863
:101A60000090FFF7EBFA074605E000BFFFF7E6FA44
:101A7000C01B0228C4D828688007F7D52868616988
:101A800020F0F80040EAC10028600FE0C6F80080AE
:101A9000FFF7D4FA074606E0E9E000BFFFF7CEFA09
:101AA000C01B022823D828688007F7D420780007B5
:101AB0002CD57248A169D9B1C0F80090FFF7BEFAE1
:101AC000074604E0FFF7BAFAC01B02280FD8686A7D
:101AD0008007F7D56A484FF4FA510068B0FBF1F07F
:101AE000009000BF0098411E0091FAD20EE080E005
:101AF000C0F80080FFF7A2FA074604E0FFF79EFA5D
:101B0000C01B022875D8686A8007F7D42078400780
:101B100060D5E8690027C00008D4E86940F080502B
:101B2000E861E869012700F080500090554801689D
:101B3000C90513D40168834641F480710160FFF741
:101B40007DFA824606E000BFFFF778FAA0EB0A00B4
:101B500064284ED8DBF80000C005F5D5E068012800
:101B60000AD008B1052813D0286A20F001002862A5
:101B7000286A20F0040002E0286A40F00100286290
:101B8000E06841F2883B98B1FFF758FA82460BE0D3
:101B9000286A40F004002862EEE700BFFFF74EFA23
:101BA000A0EB0A0159455AD8286A8007F6D50CE0FF
:101BB000FFF744FA824605E0FFF740FAA0EB0A017E
:101BC00059454CD8286A8007F6D41FB1E86920F03F
:101BD0008050E861E06988B36968C1F38101022936
:101BE00045D00228C6F8608004D0FFF727FA0446E3
:101BF00038E034E0FFF722FA074604E0FFF71EFA68
:101C0000C01B02282BD828688001F7D4206AB0F5C1
:101C1000803F05D16868A16820F4003008436860FF
:101C2000D4E908010843696821F474110843686025
:101C3000C6F86090FFF702FA044606E015E000BF20
:101C4000FFF7FCF9001B022809D828688001F7D5A6
:101C50000BE000BFFFF7F2F9001B022802D90320B6
:101C6000BDE8F88F28688001F4D40020F8E701204F
:101C7000F6E70000001002400000424280044242A9
:101C800038000020007000404FF0E021042808696F
:101C900003D020F004000861704740F00400FAE728
:101CA00010B5401EB0F1807F01D3012010BD4FF070
:101CB000E02460610F21601700F07AFF0020A0612E
:101CC00007202061002010BD7047704710B5040048
:101CD00003D094F83D0010B107E0012010BD0020B2
:101CE00084F83C00204600F00CF8022084F83D0007
:101CF000211D206801F07CF8012084F83D000020BF
:101D000010BD70470168CA6842F00102CA600068ED
:101D1000016841F00101016000207047704770B513
:101D20000446006801694FF00005C943890715D4CE
:101D3000C168C943890711D4E91E016101202077D8
:101D4000206880698007204602D0FFF7E7FF04E0A3
:101D500000F098F8204600F096F825772068016991
:101D6000C943490717D4C168C943490713D46FF061
:101D700004010161022020772068806910F4407F0F
:101D8000204602D0FFF7CAFF04E000F07BF82046AF
:101D900000F079F8257720680169C943090716D44E
:101DA000C168C943090712D46FF00801016104201A
:101DB00020772068C0698007204602D0FFF7AEFF79
:101DC00004E000F05FF8204600F05DF82577206819
:101DD0000169C943C90617D4C168C943C90613D4E8
:101DE0006FF010010161082020772068C06910F4AD
:101DF000407F204602D0FFF791FF04E000F042F858
:101E0000204600F040F8257720680169C943C907DA
:101E100008D1C168C943C90704D1891E01612046A0
:101E200000F032F820680169C943090609D4C16885
:101E3000C943090605D46FF0800101612046FFF710
:101E400043FF20680169C943490609D4C168C943F1
:101E5000490605D46FF040010161204600F01EF8EC
:101E600020680169C94389060BD4C168C943890642
:101E700007D46FF0200101612046BDE87040FFF7F4
:101E800024BF70BD7047704700680349884201D184
:101E9000FFF778BB7047000000080040704710B59E
:101EA00004460068416994F83920C1F3C011212A21
:101EB0000BD151B1416921F080014161206B08B122
:101EC000FEF7A2FD204601F043F82068416994F82E
:101ED0003A20C1F38011222A0BD151B1416921F07E
:101EE00040014161606B08B1FEF78EFD204601F0B4
:101EF00021F8002010BD704770B5026804461068D4
:101F0000D168536910F00F0F50D003F0010501F4B0
:101F1000907635435DD0C20705D0CA0503D5E26B84
:101F200042F00102E263420705D5DA0703D0E26B13
:101F300042F00202E263820705D5DA0703D0E26BC2
:101F400042F00402E263020705D5DA0703D0E26B30
:101F500042F00802E263E26B002A33D0800604D527
:101F6000880602D5204600F0FCFF20684069E16B3E
:101F7000C0F38010090700D428B3204600F0DAFF30
:101F80002068416949061AD5416921F04001416143
:101F9000606BA0B11B494163606BFEF74DFD0028EB
:101FA00010D0606B416BBDE870400847830610D5C8
:101FB0008B060ED52046BDE8704000F0D2BF20460B
:101FC000FFF799FF70BD2046FFF795FF0020E06303
:101FD00070BD030606D50B0604D52046BDE870404B
:101FE00001F0C2B84006F3D54806F1D5D1682046C5
:101FF00021F04001D160202184F8391000F032F93D
:1020000070BD00005D2E000870B5040004D094F887
:102010003900002510B106E0012070BD84F8385069
:10202000204600F023F8242084F839002068C16895
:1020300021F40051C160204600F0DEFF20680169F4
:1020400021F4904101612068416921F02A01416138
:102050002068C16841F40051C160E563202084F824
:10206000390084F83A00002070BD0000F0B5064643
:1020700000682C4985B0884251D12B48816941F4D0
:10208000804181618069294D00F4804004904FF4C3
:1020900000700090022001900320039069462846BA
:1020A000FEF7EEFE00242815CDE900046946284617
:1020B0000294FEF7E5FE1F4D1D488027C5E9000488
:1020C000C5E902472C616C61AC612846EC61FEF702
:1020D000A9FD18B17F2118A001F0AEF875636E62FA
:1020E000144D13484435143801C5102091C51148CA
:1020F00045F8104944306C61AC61EC61FEF792FD2B
:1021000018B18F210CA001F097F83563002205214A
:1021100025206E62FFF7DEFA2520FFF7CFFA05B023
:10212000F0BD0000003801400010024000080140EE
:1021300058000240840700202E2E2F5372632F7503
:10214000736172742E630000F8B5044690F83A008B
:1021500020283CD1C1B3BAB394F83800012836D056
:10216000012084F83800A162A2850025E5632220C1
:1021700084F83A00636B17489862636B1648D8621C
:10218000636B16481863606B134645630846666BBD
:10219000216802463046091DFEF776FD2068016879
:1021A0004168009184F83850C16841F48071C16081
:1021B0002068416941F0010141612068416941F0B5
:1021C000400141610020F8BDFFE70120FBE702204C
:1021D000F9E70000B72E0008F32E00086D2E000866
:1021E0007047704770B5044690F83900202830D108
:1021F00069B362B394F8380001282AD0012084F82A
:1022000038002162A284E2840025E563212084F85D
:102210003900236B10489862236B1048D862236BF7
:102220000F481863206B134645632668206B321DE8
:10223000FEF72AFD21686FF04000086084F83850EE
:102240002068416941F080014161002070BD01209A
:1022500070BD022070BD0000FD2E00082B2F00086D
:102260006D2E000870477047FEE701684A69D24347
:1022700052050CD46FF480624A610421016400218C
:1022800040F8301F20224273017301207047002064
:1022900070472DE9F84F0446C06A1E4692460D4627
:1022A00021680A6842F480620A60042807D0012885
:1022B00005D010F5803F02D0206B112804D1206892
:1022C000016841F4807101604FF00118534600220B
:1022D00041462046009600F0BCF8B8BB206908F1E2
:1022E0000109B0F5804F12D00620216800EAD51709
:1022F00047F0F00008613346524608F107012046D6
:1023000000F0D8F838B1206C04282FD01EE0E8B2D5
:1023100040F001001FE02168E8B2086133465246F0
:102320004946204600F0C6F80028ECD120684169F3
:1023300081690091016841F4807101605346002277
:1023400041462046009600F084F810B10320BDE815
:10235000F88F47F0F100216808613346524649463C
:10236000204600F0A7F80028CDD1F0E70120EEE7E5
:10237000F8B50446C06A1E460D461746042807D025
:10238000012805D010F5803F02D0206B122804D11F
:102390002068016841F480710160134600224FF00B
:1023A00001112046009600F054F8A0B92069B0F55C
:1023B000804F12D00620216800EAD51040F0F000CE
:1023C000086133463A460E49204600F073F838B1AA
:1023D000206C042811D00320F8BD05F0FE0000E0B9
:1023E000E8B221680861064933463A46891F20460B
:1023F00000F060F80028EBD1F8BD0120F8BD000026
:102400000800010070B516460D4604461AE0204645
:10241000FFF72BFF08B1012070BD681C12D025B159
:10242000FEF70CFE801BA8420CD954F8400F40F078
:10243000200044F8100900202060202161732073DF
:10244000032070BD20684069C0434007DFD40020EE
:1024500070BD2DE9F0471E4690460D460446C1F377
:102460000747DDF8209012E0701C10D02EB1FEF767
:10247000E5FDA0EB0900B04209D9002044F8300F77
:1024800020216173A07320730320BDE8F0872068CA
:10249000012F0AD0806925EA00000004000C06D054
:1024A00000214145E0D00020EFE74069F3E701213A
:1024B000F7E700002DE9F0479A4691460D4604469D
:1024C00000264FF02008C1F307472AE02068406942
:1024D000C043400512D42068016841F400710160D6
:1024E00021686FF48060486104202064266384F8CA
:1024F0003D8084F83C600120BDE8F087B9F1FF3FE2
:102500000FD0B9F1000F05D0FEF798FDA0EB0A013E
:10251000494506D944F8306F84F80D8026730320AE
:10252000EAE72068012F07D0D0F8180025EA00005C
:102530000004000CE0D0C9E74069F7E72DE9F0415D
:10254000002590460E460446202721E04069C043FE
:10255000C0060CD421686FF0100048612564256323
:1025600084F83D7084F83C500120BDE8F0812EB124
:10257000FEF764FDA0EB0800B04209D954F8400F03
:1025800040F0200044F80409677025700320ECE750
:1025900020684169C9434906D8D40020E5E770B5F1
:1025A00016460D4604461AE02046FFF75EFE08B1C7
:1025B000012070BD681C12D025B1FEF73FFD801BC5
:1025C000A8420CD954F8400F40F0200044F81009FC
:1025D00000202060202161732073032070BD2068DB
:1025E0004069C0430006DFD4002070BD70B54022B2
:1025F0005FA16148FDF728FE5F4814225FA14030CB
:10260000FDF722FE5C4C42F20F702022A4F8540029
:1026100004F156005CA18234FDF716FE20225CA175
:10262000A4F10C00FDF710FE022020750521E182C7
:1026300020766076A076E07620776077A07700F04D
:10264000DDFA4FF4807454A22146564800F0F6FD9E
:102650005448FDF70FFE82B252495348FFF7C2FDBE
:102660004FF4FA65284601F007F850A221464D487C
:1026700000F0E4FD4B48FDF7FDFD82B249494A48B0
:10268000FFF7B0FD284600F0F7FF43A2214645487A
:1026900000F0D4FD4348FDF7EDFD82B241494248C8
:1026A000FFF7A0FD284600F0E7FF44A221463D4881
:1026B00000F0C4FD3B48FDF7DDFD82B239493A48E0
:1026C000FFF790FD284600F0D7FF33A2214635489A
:1026D00000F0B4FD3348FDF7CDFD82B231493248F8
:1026E000FFF780FD284600F0C7FF3FA221462D4896
:1026F00000F0A4FD2B48FDF7BDFD82B229492A4810
:10270000FFF770FD284600F0B7FF44A22146254898
:1027100000F094FD2348FDF7ADFD82B22149224827
:10272000FFF760FD6E10304600F0A6FF3FA2214685
:102730001C4800F083FD1B48FDF79CFD82B219493F
:102740001948FFF74FFD284600F096FF3DA22146AD
:10275000144800F073FD1348FDF78CFD82B2114957
:102760001148FFF73FFD3046BDE8704000F084BFE0
:1027700053656E736F720000B00000203139322E45
:102780003136382E302E31004C75596F7551690035
:10279000313233343536000041542B5253540D0A34
:1027A00000000000400200204407002041542B4359
:1027B000574D4F44453D330D0A00000041542B4313
:1027C000575341503D2253656E736F723033222C44
:1027D00022636F6D6D756E69636174696F6E222C13
:1027E000312C330D0A00000041542B434950415015
:1027F0003D2231302E36362E36362E3636222C22DB
:1028000031302E36362E36362E3636222C223235C2
:10281000352E302E302E30220D0A000041542B432D
:1028200049504D55583D310D0A00000041542B438D
:1028300049505345525645523D312C383038300DB1
:102840000A00000041542B43495053544F3D333646
:1028500030300D0A00000000F8B54FF480742EA24D
:102860002146304800F0EAFC2E48FDF703FD82B215
:102870002C492D48FFF7B6FC4FF4FA66304600F0BD
:10288000FBFE2AA22146274800F0D8FC2548FDF788
:10289000F1FC82B223492448FFF7A4FC75102846B6
:1028A00000F0EAFE25A221461E4800F0C7FC1D48A4
:1028B000FDF7E0FC82B21B491B48FFF793FC304652
:1028C00000F0DAFE23A22146164800F0B7FC1548B6
:1028D000FDF7D0FC82B213491348FFF783FC28466A
:1028E00000F0CAFE2048204B20A2B0F8540000900F
:1028F000403321460B4800F0A1FC0A48FDF7BAFC22
:1029000082B208490848FFF76DFCBDE8F84041F283
:10291000883000F0B1BE000041542B5253540D0AD0
:1029200000000000400200204407002041542B43D7
:1029300049504D55583D310D0A00000041542B437C
:1029400049505345525645523D312C383038300DA0
:102950000A00000041542B43495053544F3D333635
:1029600030300D0A00000000B000002041542B431D
:10297000495053544152543D322C22544350222C3E
:10298000222573222C2568640D0A00000D4808B525
:10299000416941F0010141614069002200F00100FC
:1029A000009005210E20FEF795FE0E20FEF786FE14
:1029B000002205210F20FEF78DFEBDE808400F2004
:1029C000FEF77CBE0010024030B59FB0002501210B
:1029D00019A8199500F05CFE2C4C0121E0611AA8A1
:1029E0001A9500F055FE206201211BA81B9500F0EE
:1029F0004FFE606201211CA81C9500F049FEA062F8
:102A000023480022012100681D901DA800F0D2FE7D
:102A10004FF47A71A06100F0DFFE1D491422091DF8
:102A20006846FDF7DBFB0021684600F0ABFE184965
:102A300060601422183105A8FDF7D0FB002105A81D
:102A400000F0A0FE1249A06014222C310AA8FDF764
:102A5000C5FB00210AA800F095FE0D49E060142294
:102A600040310FA8FDF7BAFB00210FA800F08AFE45
:102A7000074920611422543114A8FDF7AFFB00214F
:102A800014A800F07FFE60611FB030BD0000002080
:102A9000684F00080D4808B5816941F02001816147
:102AA000816901F020010091816941F00401816197
:102AB000816901F004010091816941F0080181619F
:102AC000806900F00800009008BD0000001002407E
:102AD0000E4810B50C49016042F2107141600021AE
:102AE0004FF480428160C0E9031241618161C1619C
:102AF0000162FEF7A9FA002805D0BDE810404C217C
:102B000003A000F099BB10BD00540040E00100207C
:102B10002E2E2F5372632F6932632E630000000044
:102B20000A4810B5084901600321416040F2537121
:102B30008160FEF7F7FC002805D0BDE81040442175
:102B400003A000F079BB10BD00300040340200202B
:102B50002E2E2F5372632F697764672E6300000057
:102B60000D4810B50B4901604FF4E131416000217F
:102B700081600C22C160C0E904128161C161FFF76C
:102B800043FA002805D0BDE81040542103A000F00E
:102B900053BB10BD00380140440700202E2E2F5398
:102BA00072632F75736172742E630000FEE77047C5
:102BB0000907090E002806DA00F00F0000F1E020F6
:102BC00080F8141D704700F1E02080F80014704771
:102BD00000B5ABB0AC216846FDF719FB054A5121A1
:102BE0006846FDF767FCA22269460348FDF7F6FA3E
:102BF0002BB000BD00C00008B000002000B5A9B097
:102C0000A4216846FDF703FBA22205496846FDF7AB
:102C1000E5FA51216846FDF75BFC29B000BD0000D4
:102C2000B000002038B5264C552084F8A10001F0F2
:102C30000FFCFFF7E3FF02F0B9F84FF4807523466D
:102C400020A22946284800F0F9FA2748FDF712FB90
:102C500082B225492548FFF7C5FA4FF4FA6000F023
:102C60000BFD04F17600A0F12003009020A229467C
:102C70001D4800F0E3FA1C48FDF7FCFA82B21A493D
:102C80001A48FFF7AFFA44F2506000F0F5FCB4F8D0
:102C90005400009004F140031BA22946124800F0A2
:102CA000CDFA1148FDF7E6FA82B20F490F48FFF757
:102CB00099FABDE8384041F2883000F0DDBC0000F0
:102CC000B000002041542B43575341503D222573FF
:102CD000222C22636F6D6D756E69636174696F6E0E
:102CE000222C312C330D0A00400200204407002022
:102CF00041542B43574A41503D222573222C222513
:102D000073220D0A0000000041542B4349505354D4
:102D10004152543D322C22544350222C22257322FE
:102D20002C2568640D0A000000F022BD30B58FB07C
:102D30000920012100904FF4803000240491069175
:102D4000CDE901040225CDE907504FF4E0100990C8
:102D50006846FEF717FE00B1FEE70F20CDE90A0531
:102D60004FF48060CDE90C4002210AA80E94FEF7D2
:102D7000E3FC00B1FEE7FEF7A9FD4FF47A71B0FB6A
:102D8000F1F0FEF78DFF0420FEF77EFF00220F21F9
:102D9000501EFEF79FFC0FB030BD00000D480168CB
:102DA00041F00101016041680B4A11404160016836
:102DB0000A4A11400160016821F4802101604168E4
:102DC00021F4FE0141604FF41F0181600449C003FA
:102DD00008607047001002400000FFF8FFFFF6FE99
:102DE00008ED00E00148FEF79ABF00000C08002043
:102DF000F0B50268164B174C174D4FF080479842BC
:102E000005D0B84203D0A04201D0A84203D122F09D
:102E100070064A683243984205D0B84203D0A042B7
:102E200001D0A84203D122F44074CA68224322F0A0
:102E300080044A69224302608A68C2620A68826228
:102E4000984201D10969016301214161F0BD00008F
:102E5000002C0140000400400008004010B5406A0A
:102E60000021C185C184FFF746F810BD70B5446AE2
:102E70002068406994F83910C0F3C010002521295A
:102E800004D118B1E584204600F062F8206840695A
:102E900094F83A10C0F38010222904D118B1E585C6
:102EA000204600F047F8E06B40F01000E063204659
:102EB000FFF721F870BD10B50146406A096809683E
:102EC000890613D40021C1850168CA6822F4807282
:102ED000CA6001684A6922F001024A6101684A69D0
:102EE00022F040024A61202180F83A10FFF778F979
:102EF00010BD10B5406AFFF774F910BD10B501465A
:102F0000406A0968096889060CD40021C1840168F7
:102F10004A6922F080024A610068C16841F04001BC
:102F2000C16010BDFFF79EF910BD10B5406AFFF7F4
:102F30009AF910BD0168CA6822F49072CA600168EB
:102F40004A6922F001024A61202180F83A10704754
:102F50000168CA6822F0C002CA60202180F83910D6
:102F6000704710B590F83A10222901D0022010BD08
:102F70008168B1F5805F11D00169002901681FD017
:102F8000496801F07F03816A4A1C82620B70C18D1F
:102F9000491E0904090CC18518D02BE00269816A19
:102FA000002A0268526805D0D2B20A80816A491CA0
:102FB0008162ECE7C2F308020A80816A891CF7E7A4
:102FC0004A68816A4B1C83620A70E0E70168CA683C
:102FD00022F02002CA600168CA6822F48072CA60C6
:102FE00001684A6922F001024A61202180F83A1002
:102FF000FFF7F6F8002010BD2DE9F0410446006807
:103000000169E26821F44051114301612169A0681E
:103010000843616908432168CA6841F20C639A4316
:103020000243CA6020684169A26921F440711143DA
:1030300041614C4920686425322688423CD1FEF724
:103040005BFC00EBC00101EB001061688900B0FB84
:10305000F1F7FEF751FC00EBC00101EB00106168D5
:10306000B0468900B0FBF1F0B0FBF5F06FF018014D
:10307000484307EB800106EB0110B0FBF5F000F0D0
:10308000F006FEF739FC00EBC00101EB00106168AF
:103090008900B0FBF1F0B0FBF5F006EB0016FEF78F
:1030A0002BFC00EBC00101EB001061688900B0FB54
:1030B000F1F7FEF721FC3BE0FEF70EFC00EBC00150
:1030C00001EB001061688900B0FBF1F7FEF704FC2A
:1030D00000EBC00101EB00106168B0468900B0FB55
:1030E000F1F0B0FBF5F06FF01801484307EB8001F9
:1030F00006EB0110B0FBF5F000F0F006FEF7ECFB7C
:1031000000EBC00101EB001061688900B0FBF1F039
:10311000B0FBF5F006EB0016FEF7DEFB00EBC0019E
:1031200001EB001061688900B0FBF1F7FEF7D4FBFA
:1031300000EBC00101EB001061688900B0FBF1F009
:10314000B0FBF5F06FF01801484307EB800108EB86
:103150000110B0FBF5F0216800F00F0030448860EA
:10316000BDE8F0810038014090F83910212901D0E4
:10317000022070478168B1F5805F016A0BD04A1C5C
:103180000262026809785160C18C491E0904090C69
:10319000C1840ED017E009880268C1F308015160AC
:1031A00001690029016A02D0491C0162ECE7891C0F
:1031B000FBE70168CA6822F08002CA600068C16843
:1031C00041F04001C16000207047000010B5044884
:1031D00000F00AF8BDE810400148FEF78DBE00007F
:1031E00044070020FEE7000038B500680068C043CF
:1031F000C0061BD40E4C2068016840680090204631
:10320000FEF74DFE606B00684068A4F20444C0F510
:10321000806060800748006800F04EFA211DBDE81C
:1032200038404FF480620248FEF78EBF38BD000080
:103230004407002028000020FEE700000FB41CB562
:103240000246002007AC00290BD0491ECDE9002121
:10325000054B6A462146069800F018F8009A0021AE
:1032600011701CBC5DF814FBCF35000802E008C8E3
:10327000121F08C1002AFAD170477047002001E0F0
:1032800001C1121F002AFBD1704700002DE9FF4F3A
:103290008BB088460546002606E025280BD0DDE9E0
:1032A0000D1290476D1C761C28780028F5D10FB0C0
:1032B0003046BDE8F08F0024A146A2460122AE4967
:1032C00000E0044315F8013F203B02FA03F00842F6
:1032D000F7D128782A2810D06FF02F022878A0F193
:1032E0003001092915D809EB890102EB410144F0AD
:1032F000020400EB01096D1CF0E758F8041B5FEABB
:10330000010903D544F40054C9F1000944F0020452
:103310006D1C28782E2817D115F8010F44F00404ED
:103320002A280ED06FF02F022878A0F13001092949
:103330000AD80AEB8A0102EB410100EB010A6D1C7D
:10334000F2E758F804AB6D1C28786C280FD006DC27
:103350004C2817D068280DD06A2814D104E07428AE
:1033600010D07A280FD10DE044F400140AE044F4A0
:10337000801401E044F440146978814202D104F5DC
:1033800080146D1C6D1C2878692865D006DC002827
:103390008DD0632827D0642806D15DE06E2808D040
:1033A00073282AD0752877D0DDE90D129047761C56
:1033B000E0E0C4F30250022809D003280DD0D8F869
:1033C000001004280DD00E6008F10408D2E0D8F8EF
:1033D0000010F217C1E90062F6E7D8F800100E807D
:1033E000F2E70E70F0E718F8041B8DF800100020CB
:1033F0008DF80100EB46012003E058F804BB4FF0C4
:10340000FF3061074FF0000701D40AE07F1C5745E9
:103410000DDA8742FADB1BF807100029F6D106E027
:103420007F1C8742FCDB1BF807100029F8D1DDE97F
:103430000D23A9EB07008146214600F0B1F8304486
:10344000C61904E0DDE90D121BF8010B90477F1E41
:10345000F8D22146484688E058F8040BC4F30251DC
:103460004FF00A0B032900D100B2042900D140B269
:10347000002802DA40422D2102E0210505D52B214A
:103480008DF82410012104E006E0E10710D020218E
:10349000F6E708AF089113E058F8040BC4F30251A3
:1034A0004FF00A0B032900D180B2042900D1C0B229
:1034B0000021EEE75946FCF7F3FE303107F8011D15
:1034C0000028F7D1ADEB070000F1200B600702D513
:1034D00024F4803401E04FF0010ADA4502DDAAEB62
:1034E0000B0000E00020824600EB0B01089801442D
:1034F000A9EB01000A90E00306D4DDE90D23214683
:103500000A9800F04DF806444FF0000908E009A9B8
:1035100011F80900DDE90D12904709F10109761C47
:1035200008998945F3DBE0030CD5DDE90D2321463D
:103530000A9800F035F8064404E0DDE90D12302069
:103540009047761CBAF10001AAF1010AF5DC05E00A
:10355000DDE90D1217F8010B9047761CBBF1000155
:10356000ABF1010BF4DC0A982146DDE90D2300F0F4
:1035700005F806446D1C97E6092801002DE9F04185
:10358000044600251E461746880404D405E0394643
:103590002020B0476D1C641EF9D52846BDE8F08197
:1035A0002DE9F041044600251E469046C80301D58A
:1035B000302700E02027880404D505E0414638463E
:1035C000B0476D1C641EF9D52846BDE8F0814A68F5
:1035D000002A06D00A68531C0B6010704868401E11
:1035E00048607047EFF30580002800D00120704745
:1035F000FDF7D0FFFFF79AFBFFF74CFAFFF7C6F98C
:10360000FFF7AEFAFFF764FAFFF78AFA4FF4806229
:103610000A490B48FEF798FD09480068C16841F067
:103620001001C1600A20FDF767FB0648FDF77AFF2D
:10363000FFF7CAF900F027F8FEE700004403002076
:10364000440700203402002001460020842900D0D5
:10365000C81C7047064810B50188491C0180C06924
:1036600000F02AF8BDE810400248FDF784BF0000D2
:10367000000000203402002010B500B9012000F045
:10368000FBFD002010BD10B500F0AAFE002010BD0B
:1036900010B5012901D0002010BD03220021012016
:1036A00000F05CFF040004D000231A46194601F024
:1036B00073F8204610BD000038B50024054600947C
:1036C000FFF790FF90B16946284601F073F9012891
:1036D00001D0FF2038BD009888B10A494FF08050D2
:1036E0000860BFF34F8FBFF36F8F08E000231A46C7
:1036F0001946284601F050F8012800D0FF24204642
:1037000038BD000004ED00E038B505004FF00000C2
:1037100000900FD00024481C0ED001B10C46FFF7DA
:1037200061FFB8B16A460021284601F091F90128ED
:1037300018D104E0802038BD4FF0FF34EFE7009847
:1037400090B10A494FF080500860BFF34F8FBFF32C
:103750006F8F09E0002322461946284600F022FF19
:10376000012801D0FF2038BD002038BD04ED00E065
:1037700010B501F01DFA012803D0BDE8104000F09B
:10378000D7BE10BD3EB504460D46B0F90800FFF7A0
:103790005BFF02A9CDE90001208A2B4682B2D4E961
:1037A000001001F0D9F9012801D000203EBD029897
:1037B0003EBD000008B500680090012907D0002038
:1037C00013460246012103A001F052FB08BD01206F
:1037D000F6E70000000000002DE9FC410025074647
:1037E0002E4601950C0000D10124FFF7FBFE009648
:1037F00090B101AB22460921384601F085FB012832
:1038000012D1019888B10A494FF080500860BFF387
:103810004F8FBFF36F8F08E0002322460421384604
:1038200001F072FB012800D0FF252846BDE8FC818D
:1038300004ED00E02DE9F041184C0F460546E6681E
:103840002068001D00F002FC38B9206890F82C10A8
:1038500001208840216981432161681C07D137B16B
:103860002168BDE8F0410E48091D00F027BC206822
:103870003544B5424560216805D2A06BBDE8F041F2
:10388000091D00F003BC606B091D00F0FFFBA06A7E
:10389000854200D2A562BDE8F081000060000020F2
:1038A0008C3100202DE9F041054600F013FC2E4C30
:1038B000A068401CA06020682C4F10B1606940B324
:1038C0002DE02560A068012829D1002606EB86009E
:1038D00007EB800000F0CCFB761C072EF6D32348C4
:1038E0008C3000F0C5FB2148A03000F0C1FB1F4820
:1038F000B43000F0BDFB1D48C83000F0B9FB1B48D8
:10390000DC3000F0B5FB19488C3060631430A063E4
:1039100005E02068E96AC06A884200D82560606ACC
:10392000401C6062E96A01202269884010432061DE
:1039300001EB810007EB8000291D00F0BFFB00F0C8
:10394000E9FB606900280CD02068E96AC06A8842F7
:1039500007D207494FF080500860BFF34F8FBFF385
:103960006F8FBDE8F081000060000020B0300020C3
:1039700004ED00E010B500F0ADFB0E4C2068A0B9DE
:103980000D4800F075FB0C48143000F071FB0A483C
:10399000E0601430206100220C210A2000F0DEFDDE
:1039A000206010B105A100F031FCBDE8104000F02E
:1039B000B1BB00009C000020A0310020546D72516A
:1039C0000000000070B5114E114C17E000F040FDF2
:1039D0003068B8B101F0EAF900F07CFBF068C56826
:1039E000281D00F033FBA068401EA0606068401EE8
:1039F000606000F08FFB284600F055F860680028F2
:103A0000E4D170BD01F0D2F9F8E700007831002070
:103A10006000002030B4026C0B46002A0BD0C16855
:103A20001144C1604468A14201D30168C16030BC47
:103A30001846FCF7D3BB30BC70472DE9F041856BCD
:103A4000174604460026026C82B1C7B1E068FCF755
:103A5000C5FBE168206C091AE1602268914202D23C
:103A60006168081AE060022F16D017E02068A8B934
:103A7000606801F015F90646002060600EE0A0685D
:103A8000FCF7ACFB216CA0680844A0606168884228
:103A900004D32068A06001E005B16D1E6D1CA56314
:103AA0003046BDE8F08110B50446006B00F046FBDF
:103AB0002046BDE8104000F041BB000010484FF424
:103AC0002051420706D0C01D0D4920F00700411AC1
:103AD000C1F520510B4A00230144C2E90003083913
:103AE000103A21F0070111604B600B600B1AC0E91E
:103AF000001393604FF000405360D06070470000A7
:103B0000700800204C000020074C4FF08056074DF5
:103B1000FFF758FF20680128FAD92E60BFF34F8FB6
:103B2000BFF36F8FF4E70000B030002004ED00E039
:103B30002DE9F0479A46DDE9098481466FF00303D9
:103B4000206B03EB82021044089D20F007067007EB
:103B500007D0502080F31188BFF34F8FBFF36F8FD2
:103B6000FEE723180A5C83F834200A5C12B1401C7B
:103B70002028F6D3002784F85370072D00D306259C
:103B8000E562C4E91557201D00F07DFA04F1180024
:103B900000F079FA2461C5F107006462A061E7656D
:103BA00084F8607052464946304600F03DFA206085
:103BB000B8F1000F01D0C8F80040BDE8F087000060
:103BC00030B5114900E011460A688242FBD34B68C8
:103BD0005C18844203D14068184448600846436832
:103BE0001C18944209D1084C103C2468A24209D008
:103BF00052681A4442600A6812680260814200D02A
:103C0000086030BD0460F9E74C00002070B5002466
:103C100041600B4D0061914206D8D11A82699142F0
:103C200006D2011D286907E09A4203D2994201D3C6
:103C3000012403E0011DE86800F028FA204670BD69
:103C40009C00002010B5044600F044FAA06B28B197
:103C50005FF0000400F05EFA204610BD0124F9E791
:103C600030B587B02B4D4BE00498002848DB069C0C
:103C7000606910B1201D00F0E9F902A800F0B6F863
:103C8000024604980A283BD2DFE800F00505053A11
:103C9000263705053A260598A169034601442046C2
:103CA000FFF7B4FF00B3616A20468847E069012846
:103CB00026D1002000900598A169002342181946DA
:103CC000204601F021F978B9502080F31188BFF324
:103CD0004F8FBFF36F8FFEE70598A06128B1811861
:103CE00013462046FFF792FF0AE0502080F3118828
:103CF000BFF34F8FBFF36F8FFEE7204600F01EFA31
:103D000000231A4604A9286800F04CFC0028ABD117
:103D100007B030BD9C0000202DE9FC410F46054650
:103D200000F096FB01A800F061F80446019818B174
:103D300001F03CF8BDE8FC81224EAFB1306900686B
:103D4000A8B30027291B3A46306800F073FA01F047
:103D50002DF80028EED11C494FF080500860BFF3C9
:103D60004F8FBFF36F8FE5E7A542EBD801F01EF848
:103D7000F0682746C068C468201D00F067F9E06954
:103D8000012810D1A0692B4641193A462046FFF779
:103D90003DFF40B100200346014600902A462046E0
:103DA00001F0B2F820B1616A20468847C2E707E017
:103DB000502080F31188BFF34F8FBFF36F8FFEE762
:103DC0000127BFE79C00002004ED00E00648416B9E
:103DD000096829B1416BC968C9684968816270473F
:103DE0004FF0FF31FAE700006000002070B5054693
:103DF00000F0ECFE064E0446B068844203D200F0A8
:103E000009F8012000E0002028602046B46070BD61
:103E10009C000020F8B5194D1FE0C068C468066812
:103E2000201D00F013F9616A20468847E0690128E7
:103E300013D1A0693044B04206D924616060211DCD
:103E4000E86800F023F908E00020034601460090EE
:103E50003246204601F058F838B1E8680168002978
:103E6000DBD12969C5E90310F8BD502080F3118822
:103E7000BFF34F8FBFF36F8FFEE700009C00002061
:103E800008484068401C4FF0500080F3118804D06F
:103E9000BFF34F8FBFF36F8FFEE7BFF34F8FBFF3BB
:103EA0006F8FFEE754000020074CE068016841B1C5
:103EB000C0680021D0F80000FFF72EFFFFF7D0FE0A
:103EC000F3E701210020F7E79C0000202DE9F041F5
:103ED000044600F0FFF894F9455004F1240609E087
:103EE000606A48B1304600F027FF08B100F0EAF9F7
:103EF0006D1E6DB2002DF3DC4FF0FF3684F8456087
:103F000000F008F900F0E6F894F9445004F11007C5
:103F100009E0206948B1384600F00EFF08B100F012
:103F2000D1F96D1E6DB2002DF3DC84F84460BDE85C
:103F3000F04100F0EFB800002DE9F0410546002700
:103F400000F086FA314E306808B9FFF7B7FDF06827
:103F500005424BD1C5B3083568070ED005F0070000
:103F6000C0F108000544680707D0502080F311888D
:103F7000BFF34F8FBFF36F8FFEE72DB3706885429D
:103F800034D82248103001460C6801E020460C4627
:103F90006168A94202D221680029F7D131688C42B8
:103FA00024D007682168016060680837411B102928
:103FB0000FD96019420708D0502080F31188BFF351
:103FC0004F8FBFF36F8FFEE710E041606560FFF732
:103FD000F7FD61687068401A7060B268904200D264
:103FE000B060F06801430020C4E9000100F0DEFE8B
:103FF000780707D0502080F31188BFF34F8FBFF3AD
:104000006F8FFEE73846BDE8F08100003C000020DD
:104010000449086818B10868826D521C82650868F6
:10402000704700006000002010B5031F4FF080743F
:104030001C601B1F21F001011960191F024B0B604E
:10404000143940380A6010BD813E0008D0E90132C1
:1040500001699A60D0E901235A604A68824201D11D
:1040600082684A60002202610868401E086070474A
:1040700000F108014FF0FF32C0E90112C160016197
:1040800000210160704700210161704730B50B6865
:104090005A1C02D000F1080202E0026904E0224644
:1040A000546825689D42FAD953684B6099608A60CC
:1040B000516008610168491C016030BD42684A6076
:1040C00093688B6093685960916008610168491C2E
:1040D00001607047502080F31188BFF34F8FBFF30A
:1040E0006F8F0A494868401C486001280CD1084875
:1040F000006810F0FF0F07D0502080F31188BFF345
:104100004F8FBFF36F8FFEE7704700005400002011
:1041100004ED00E00849486828B1401E486001D11C
:1041200080F311887047502080F31188BFF34F8FC0
:10413000BFF36F8FFEE700005400002070B5002829
:1041400027D0144DA0F108046168E868014207D146
:10415000502080F31188BFF34F8FBFF36F8FFEE7BE
:1041600022683AB1502080F31188BFF34F8FBFF31C
:104170006F8FFEE78143616000F06AF960686968EB
:10418000084468602046FFF71BFDBDE8704000F062
:104190000DBE70BD3C00002006484FF47A710068E7
:1041A000B0FBF1F14FF0E020491E416107210161B0
:1041B000704700003800002010B5FBF7E9FF1149F7
:1041C00010280ED300F1E02090F8F0030A78904216
:1041D00007D2502080F31188BFF34F8FBFF36F8F4A
:1041E000FEE709480068896800F4E060884207D962
:1041F000502080F31188BFF34F8FBFF36F8FFEE71E
:1042000010BD0000540000200CED00E010B5084B7C
:10421000002200BF53F832401CB1521C082AF9D3C7
:1042200010BD43F8321003EBC201486010BD00001E
:104230007030002070B515460E460446FFF74AFF61
:1042400094F944100020491C01D184F8440094F9E9
:104250004510491C01D184F84500FFF75BFFA06BB6
:1042600028B92A46314604F1240000F049F82046D6
:10427000BDE87040FFF72ABE10B5020014D00F4809
:10428000006B38B1502080F31188BFF34F8FBFF31C
:104290006F8FFEE700F0DCF800211046FFF7CAFA46
:1042A00000F084FD002807D105494FF080500860D8
:1042B000BFF34F8FBFF36F8F10BD00006000002071
:1042C00004ED00E001490120C86170476000002052
:1042D00010B50C4650B1094909681831FFF7D6FEF0
:1042E0002046BDE810400121FFF7A4BA502080F31A
:1042F0001188BFF34F8FBFF36F8FFEE76000002080
:1043000070B514460D4668B10A4909681831FFF7BF
:10431000D5FE0CB14FF0FF3521462846BDE8704070
:10432000FFF788BA502080F31188BFF34F8FBFF397
:104330006F8FFEE76000002070B5040039D01D4D7E
:10434000E06A2968C96A884233D2A069002804DB80
:104350002868C06AC0F10700A061E16A164E01EB4F
:104360008101606906EB810188421FD1201DFFF7A2
:104370006DFE012150B9E06A00EB800256F8222060
:1043800022B92A6901FA00F082432A612868C06ACA
:10439000E0622A6981401143296100EB800006EB4D
:1043A0008000211DBDE87040FFF788BE2868C06A04
:1043B000E06270BD60000020B030002028B10749E5
:1043C0000A6A0260C96841607047502080F3118812
:1043D000BFF34F8FBFF36F8FFEE700006000002038
:1043E0001CB517480024CDE900402346802215A1C2
:1043F000164800F0B1FB012803D100F061FD01284F
:1044000009D0401C1AD1502080F31188BFF34F8F80
:10441000BFF36F8FFEE7502080F31188BFF34F8FFB
:10442000BFF36F8F06484FF0FF312C3881620121B6
:104430004161C460BDE81C4000F040B81CBD0000F4
:104440008C00002049444C4500000000093B000856
:104450000248016B491C01637047000060000020A6
:104460001448016B11B10121C16170470021C16184
:104470000169B1FA81F1C1F11F0101EB81020E491D
:1044800051F822306BB101EB820101F108034A6857
:1044900052684A609A4201D152684A60D16801600C
:1044A0007047502080F31188BFF34F8FBFF36F8F99
:1044B000FEE7000060000020B03000201CB5194964
:1044C00008780190FF20087008788DF800009DF8AA
:1044D0000000154A00F0500010700720906005E0C1
:1044E0009DF800305B008DF80030401E9DF80030D4
:1044F0001B06F5D4000200F4E0609060019808709B
:104500000A48016841F470010160016841F070419E
:104510000160FFF741FE00205060FBF703FE002022
:104520001CBD000000E400E05400002020ED00E08D
:1045300010B5502080F31188BFF34F8FBFF36F8FFA
:1045400000F04AFB18B104494FF080500860002089
:1045500080F3118810BD000004ED00E070B50E4638
:10456000050013D0D6B105FB06F04830FFF7E4FC98
:10457000040009D004F1480120468EB10160C0E971
:104580000F56012100F0C4F8204670BD502080F382
:104590001188BFF34F8FBFF36F8FFEE70020E4E772
:1045A0000060ECE72DE9FF4F002683B09B468A466A
:1045B000040003D0BAF1000F08D011E0502080F3BE
:1045C0001188BFF34F8FBFF36F8FFEE7206C38B1B8
:1045D000502080F31188BFF34F8FBFF36F8FFEE73A
:1045E00000F0E6FADFF824814FF000094FF0805721
:1045F00048B9059838B1502080F31188BFF34F8F28
:10460000BFF36F8FFEE7FFF765FDA56B45B351461E
:104610002046E668FFF7FEF9BBF1000F13D0E66015
:10462000606A50B104F1240000F086FB28B1C8F89C
:104630000070BFF34F8FBFF36F8FFFF76BFD01204B
:1046400007B0BDE8F08F6D1EA563206810B9FFF7B5
:10465000DFFC606020690028EFD004F11000E3E780
:10466000059808B11EB106E0FFF754FD27E0684643
:10467000FFF7A4FE0126FFF74DFDFFF7E9FEFFF768
:1046800029FD94F94400401C01D184F8449094F928
:104690004500401C01D184F84590FFF73BFD05A97A
:1046A000684600F023FA002820460AD0FFF70EFCE7
:1046B00000F07CFB2046FFF7C5FA0028A3D00020BD
:1046C000BEE7FFF7BFFAD8B1206830B9FFF702FDA7
:1046D0006068FFF731FEFFF71DFD04F12400059926
:1046E000FFF7F6FD2046FFF7F1FB00F05FFB002827
:1046F00089D1C8F80070BFF34F8FBFF36F8F82E787
:104700002046FFF7E3FB00F051FB7CE704ED00E0FF
:1047100070B50D46040025D0FFF7DCFCD4E90F206E
:10472000216802FB001161600021A1632168A16082
:104730000A46D4E90F01401E00FB0121E160214639
:104740004FF0FF3001F8440F487004F110008DB1B4
:10475000FFF78EFC04F12400FFF78AFCFFF7DAFC78
:10476000012070BD502080F31188BFF34F8FBFF33D
:104770006F8FFEE721690029F0D000F0DDFA0028F4
:10478000ECD004494FF080500860BFF34F8FBFF367
:104790006F8FE3E704ED00E02DE9FF4782B01D468F
:1047A0008A464FF00008040003D0BAF1000F08D089
:1047B00011E0502080F31188BFF34F8FBFF36F8F4C
:1047C000FEE7206C38B1502080F31188BFF34F8F83
:1047D000BFF36F8FFEE7022D0AD1E06B012807D0EF
:1047E000502080F31188BFF34F8FBFF36F8FFEE728
:1047F00000F0DEF93F4F4FF000094FF0805648B906
:10480000049838B1502080F31188BFF34F8FBFF365
:104810006F8FFEE7FFF75EFCA06BE16B884207D36A
:10482000022D05D00498D0B1B8F1000F1AD01EE0C7
:104830002A4651462046FFF700F9616A19B104F192
:10484000240000F079FA20B13E60BFF34F8FBFF330
:104850006F8FFFF75FFC012006B0BDE8F087FFF720
:1048600059FC22E06846FFF7A9FD4FF00108FFF769
:1048700051FCFFF7EDFDFFF72DFC94F94400401CBF
:1048800001D184F8449094F94500401C01D184F88A
:104890004590FFF73FFC04A9684600F027F930B1C6
:1048A0002046FFF713FB00F081FA0020D4E7FFF762
:1048B00011FCA06BE16B884213D1FFF72BFC04F1D4
:1048C00010000499FFF704FD2046FFF7FFFA00F0FF
:1048D0006DFA00289ED13E60BFF34F8FBFF36F8FFC
:1048E00098E7FFF717FC2046FFF7F0FA00F05EFAB2
:1048F00090E7000004ED00E02DE9F0471F469046E8
:104900008946040003D0B9F1000F08D011E050200F
:1049100080F31188BFF34F8FBFF36F8FFEE7206CDA
:1049200038B1502080F31188BFF34F8FBFF36F8FE2
:10493000FEE7022F0AD1E06B012807D0502080F358
:104940001188BFF34F8FBFF36F8FFEE7FFF734FC83
:104950005020EFF3118680F31188BFF34F8FBFF320
:104960006F8FA06BE16B884206D3022F04D000202A
:1049700086F31188BDE8F08794F945503A464946D8
:104980002046FFF75AF8681C04D06D1C84F8455087
:104990000120EDE7606A0028FAD004F1240000F05D
:1049A000CBF90028F4D0B8F1000FF1D00121C8F8FC
:1049B0000010EDE770B50E46040009D0206C78B108
:1049C000502080F31188BFF34F8FBFF36F8FFEE746
:1049D000502080F31188BFF34F8FBFF36F8FFEE736
:1049E000206848B9606838B1502080F31188BFF35F
:1049F0004F8FBFF36F8FFEE7FFF7DEFB5020EFF323
:104A0000118580F31188BFF34F8FBFF36F8FA16BB8
:104A1000E06B884218D994F94500491CA163411CF8
:104A200004D0401C84F8450001200EE0606A002894
:104A3000FAD004F1240000F07FF90028F4D0002E11
:104A4000F2D001203060EFE7002085F3118870BDBF
:104A50002DE9F04790468946040003D0B9F1000FD4
:104A600008D011E0502080F31188BFF34F8FBFF3BF
:104A70006F8FFEE7206C38B1502080F31188BFF3B0
:104A80004F8FBFF36F8FFEE7FFF796FB5020EFF3DA
:104A9000118680F31188BFF34F8FBFF36F8FA76B21
:104AA000F7B194F9445049462046FEF7B3FF7F1E04
:104AB000A763681C04D06D1C84F84450012010E0EA
:104AC00020690028FAD004F1100000F035F9002820
:104AD000F4D0B8F1000FF1D00121C8F80010EDE7D3
:104AE000002086F31188BDE8F087000070B50D4600
:104AF000040019D005B3FFF7EDFA164AD16828680B
:104B0000431C0FD02368126A934202D062688A4223
:104B10001AD96268891A814216D2401A2860204642
:104B2000FFF74CFC002410E0502080F31188BFF305
:104B30004F8FBFF36F8FFEE7502080F31188BFF3D4
:104B40004F8FBFF36F8FFEE70124FFF7E3FA204694
:104B500070BD0000600000202DE9FF5F8346DDE9A5
:104B60000E87994616468A469000FFF7E5F905003C
:104B70001AD06420FFF7E0F9040012D02563002169
:104B8000CDE90241CDE900874B46324651465846B1
:104B9000FEF7CEFF2046FEF785FE012004B0BDE8FB
:104BA000F09F2846FFF7CAFA4FF0FF30F6E7000003
:104BB0000548416919B1006B18B100207047012008
:104BC0007047022070470000600000200148C06864
:104BD00070470000600000202DE9F0412E4C0027B6
:104BE000206B40B1A069401CA061E06900B10127C1
:104BF0003846BDE8F081E668761CE66013D1606B4C
:104C0000006838B1502080F31188BFF34F8FBFF395
:104C10006F8FFEE7606BA16B6163A063206A401C2D
:104C20002062FFF7D3F8A06ADFF87080864209D3CC
:104C3000606B006880B1606BC068C5686868864258
:104C40000DD2A0622068C06A00EB800158F82100F4
:104C50000128CAD90127C8E74FF0FF30F1E7281D26
:104C6000FFF7F4F9A86A18B105F11800FFF7EEF99B
:104C7000E86A0121226981401143216100EB800132
:104C800008EB8100291DFFF719FAE86A2168C96A53
:104C90008842CDD30127CBE760000020B030002050
:104CA00070B504004FF0000140D0214D28688442C7
:104CB00007D0502080F31188BFF34F8FBFF36F8F61
:104CC000FEE7A06D38B1401EA065636DE26A9A42AE
:104CD0002CD040B12AE0502080F31188BFF34F8FD1
:104CE000BFF36F8FFEE7201DFFF7B0F9114A0121D6
:104CF00050B9E06A00EB800352F8233023B92B69E6
:104D000001FA00F083432B61606DE062C0F107009F
:104D1000A061E06A2B6981401943296100EB8000A2
:104D200002EB8000211DFFF7C9F90121084670BD83
:104D300060000020B03000202DE9F041C068C46858
:104D4000ACB104F118000746FFF780F9154D286B48
:104D50000126A0B139461448FFF7B0F9E06A296886
:104D6000C96A88421CD90120EE61BDE8F08150205B
:104D700080F31188BFF34F8FBFF36F8FFEE7201DC5
:104D8000FFF764F9E16A2A6906FA01F01043286125
:104D900001EB81000449B43901EB8000211DDBE700
:104DA0000020E2E760000020643100202DE9F04798
:104DB0002C4D00242746286B38B1FFF78BF9286B60
:104DC000401E2863286B40B146E0502080F31188D4
:104DD000BFF34F8FBFF36F8FFEE7A968224E01200C
:104DE000D1B3A6F1B40980463068E8B1F068C46870
:104DF00004F11800FFF72AF9201DFFF727F9E06AF0
:104E00002A6908FA00F11143296100EB800109EBDE
:104E10008100211DFFF752F9E06A2968C96A8842BA
:104E2000E2D3C5F81C80DFE70CB1FEF7CFFFAC6919
:104E300044B14646FFF7D0FE00B1EE61641EF9D1E1
:104E40000020A861E86938B10849012738070860DF
:104E5000BFF34F8FBFF36F8FFFF75CF93846BDE8A4
:104E6000F0870000600000206431002004ED00E0C5
:104E70002DE9F0470746994616460D462820DDF8ED
:104E800020A0FFF759F804000ED0B8464F46D1468F
:104E90006DB1FEF76FFD04F11801C4F8008081E8E0
:104EA000E002201DFFF7EFF82046BDE8F087502014
:104EB00080F31188BFF34F8FBFF36F8FFEE70000C1
:104EC0001CB5FEF757FD0C48006860B10A49022086
:104ED000091DCDE90001C201002308A10948FFF71F
:104EE0003BFE002807D1502080F31188BFF34F8F7D
:104EF000BFF36F8FFEE71CBD9C000020546D722035
:104F000053766300A93E0008FEB51E461346020014
:104F1000089D4FF0000014D0124C2768002F0FD0CE
:104F2000CDE900130292062915DAFFF741FE0228A7
:104F30004FF000030DD0002269462068FFF72CFCDB
:104F4000FEBD502080F31188BFF34F8FBFF36F8FEA
:104F5000FEE72A46F0E70023324669463846FFF767
:104F6000CBFCFEBD9C00002055360008E84F000831
:104F7000690500080000000000000000800000003B
:104F8000FC4F0008A506000800000000000000001B
:104F9000800000002C5000082105000800000000DF
:104FA0000000000080000000405000089905000843
:104FB0000000000000000000800000000C5000080D
:104FC000A5050008000000000000000080000000AF
:104FD00000000000000000000102030406070809A9
:104FE00000000000010203045461736B5F476574A5
:104FF00053656E736F727344617461005461736BB7
:105000005F5265706F727444617461005461736BB8
:105010005F525850726F6475637450726F746F632F
:105020006F6C416E616C7973650000005461736B45
:105030005F44657669636553657474696E670000E3
:105040005461736B5F4E6574776F726B4C696E6BF6
:10505000000000007450000800000020B0000000B4
:105060006C32000824510008B00000201835000000
:105070007C3200080000000000000000000000007A
:105080000000000000000000000000000000000020
:105090000000000000000000000000000000000010
:1050A00001000000100000000000000000A24A04FF
:1050B00000000000000000000000000000000000F0
:1050C000000000000000000000000000AAAAAAAA38
:1050D00000000000000000000000000000000000D0
:1050E00000000000000000000000000000000000C0
:1050F00000000000000000000000000000000000B0
:10510000000000000000000000000000000000009F
:10511000000000000000000000000000000000008F
:04512000000000008B
:04000005080000ED02
:00000001FF
