:020000040800F2
:1000000010340020990100080F1600089114000810
:100010000D16000815020008E51A0008000000008F
:1000200000000000000000000000000001010008C6
:100030005B020008000000004501000831160008BE
:10004000B3010008B3010008B3010008B3010008C0
:10005000B3010008B3010008B3010008B3010008B0
:10006000B3010008B3010008B3010008B3010008A0
:10007000B3010008B30100081902000825020008B6
:10008000B3010008B3010008B3010008B301000880
:10009000B3010008B3010008B3010008B301000870
:1000A000B3010008B3010008B3010008B301000860
:1000B000B3010008B3010008E5160008B301000809
:1000C000B3010008B3010008B3010008B301000840
:1000D000B3010008CD1A0008B3010008B3010008FD
:1000E000B3010008B3010008B3010008DFF80CD029
:1000F00000F07EF800480047851C000810340020FE
:10010000224B19680868B0E8F00F80F30988BFF344
:100110006F8F4FF0000080F311884EF00D0E704786
:100120000000000006480068006880F3088862B696
:1001300061B6BFF34F8FBFF36F8F00DF00BF00BF0B
:1001400008ED00E0EFF30980BFF36F8F0F4B1A68E3
:1001500020E9F00F106008B54FF0500080F31188CF
:10016000BFF34F8FBFF36F8F02F07AFC4FF00000A8
:1001700080F31188BDE8084019680868B0E8F00FFE
:1001800080F30988BFF36F8F704700BF5C000020C9
:10019000EFF3058070470000064880470648004797
:1001A000FEE7FEE7FEE7FEE7FEE7FEE7FEE7FEE727
:1001B000FEE7FEE79D160008ED00000840EA010397
:1001C0009B0703D009E008C9121F08C0042AFAD20D
:1001D00003E011F8013B00F8013B521EF9D27047D1
:1001E000421C10F8011B0029FBD1801A7047000047
:1001F000064C074D06E0E06840F0010394E8070074
:1002000098471034AC42F6D3FFF774FF5436000819
:1002100074360008FEE70000014800F0BFB8000097
:10022000F0050020014800F0B9B8000034060020B5
:1002300030B590F840500124AC40C56B6C60046848
:1002400063604368102B036803D099600068C26044
:1002500030BD9A600068C16030BD7047012001F078
:100260003AFDFBE7012001F036FDFBE7012001F03C
:1002700032FDFBE74FF0FF360D4D0E4C4FF480770B
:100280003146686A01F06EFD231D0BA239460D4808
:1002900001F054FC0B48FFF7A3FF401C82B2094950
:1002A000094801F0B3F8012001F015FDE8E700006E
:1002B00000000020AC010020BDF1CCECCAC72573C2
:1002C00000000000AC000020B0050020012001F07B
:1002D00002FDFBE701680A6822F00E020A6001686D
:1002E0000A6822F001020A6090F84020C36B0121E5
:1002F00001FA02F25A6080F82110002180F82010E3
:100300000846704710B590F821100024022903D048
:100310000421816301243DE001680A6822F00E0295
:100320000A6001680A6822F001020A601A4A01683C
:10033000914201D1012121E0174A1432914201D1A9
:1003400010211BE0144A2832914201D1891515E091
:10035000114A3C32914201D189140FE00E4A5032C9
:10036000914202D14FF4803108E00B4A643291424D
:1003700002D14FF4801101E04FF08071064A083A33
:100380005160012180F82110002180F82010416B7C
:1003900001B18847204610BD080002402DE9F05FFA
:1003A000C16B0C6801680B68D0F840C0042202FAE7
:1003B0000CF2494DDFF824A1494E4A4FDFF828B12D
:1003C000DFF828E122422CD05A072AD50A68920683
:1003D00003D40A6822F004020A600168A94201D12C
:1003E000042219E0514501D1402215E0B14202D169
:1003F0004FF4806210E0B94202D14FF480420BE02A
:10040000594502D14FF4802206E0714502D14FF4E4
:10041000800201E04FF080622F4908394A60C16ACA
:100420003BE04FF0020808FA0CF818EA040F4FF00E
:1004300000094FF0010235D05FEA837832D50B68AE
:100440009B0605D40B6823F00A030B6080F821207B
:100450000168A94201D1022219E0514501D12022AF
:1004600015E0B14202D14FF4007210E0B94202D15E
:100470004FF400520BE0594502D14FF4003206E030
:10048000714502D14FF4001201E04FF000721249A1
:1004900008394A6080F82090816A00291AD0BDE8A6
:1004A000F05F0847082505FA0CF5254212D01B0716
:1004B00010D50B6823F00E030B6090F84010C36B4F
:1004C00002FA01F15960826380F8212080F82090BF
:1004D000016BE2E7BDE8F09F080002401C0002400B
:1004E0003000024044000240580002406C000240CC
:1004F00030B548B308C8154914221944B1FBF2F1CC
:100500008900C16312498163022141771A6843F669
:10051000F0718A43D0E900142143D0E902452C430D
:1005200021430469214344692143846921431143E0
:100530001960002141628162C1620163416301224D
:1005400042770177084630BD012030BDF8FFFDBF7E
:100550000000024070B5044690F8200000250128F4
:100560000CD0012084F8200094F821600020012E96
:1005700006D084F820000225284670BD022070BDF8
:10058000022684F82160A0632068066826F0010630
:1005900006602046FFF74CFEE06A002820680168EC
:1005A00002D041F00E0106E021F004010160206854
:1005B000016841F00A0101602068016841F0010111
:1005C0000160D9E770B5044600F0ECF80546601C00
:1005D00002D004480078044400F0E4F8401BA04234
:1005E000FAD370BD280000202DE9F84FDFF890A164
:1005F00000220AF1040B144601274FF00F090BF1FA
:10060000040E00BF0B6807FA04F52B40AB4274D10F
:10061000DFF870C14E68A6EB0C0866452BD00DDCE8
:10062000032E34D005DC36B3012E19D0022E2FD183
:100630001BE0112E16D0122E2AD119E0B8F5881F12
:1006400019D006DCB8F5803F15D0B8F5801F1FD152
:1006500011E0B8F5001F0ED0B8F5041F18D10AE05C
:10066000CA6815E0CA68121D12E0CA6808320FE0B5
:10067000CA680C320CE08A682AB1012A4FF00802DD
:1006800003D0456104E0042202E0056100E000229D
:10069000FF2B01D8064601E000F104064FEA84056D
:1006A00001D9A5F12005D6F800C009FA05F82CEA11
:1006B000080C02FA05F54CEA050CC6F800C04D68B6
:1006C000ED0057D5304DAE6946F00106AE61AD691B
:1006D00024F0030605F0010500952C4D06EB050CF2
:1006E000DCF80850A6074FEA167809FA08F6B54371
:1006F000274EB04202D1002610E03BE0254EB0422A
:1007000001D101260AE0244EB04201D1022605E0C3
:10071000224EB04201D1032600E0042606FA08F674
:100720002E43CCF808604D68DAF80060ED035546BA
:1007300001D51E4300E09E432E604D68DBF800604B
:10074000AD035D4601D51E4300E09E432E604D681B
:10075000DEF80060ED02754601D51E4300E09E43C1
:100760002E604D68AD020E4D2E6801D51E4300E08F
:100770009E432E60641C102CFFF444AFBDE8F88F3C
:100780000004014000001110001002400000014070
:1007900000080140000C014000100140001401401D
:1007A0000C040140014880687047000028000020C8
:1007B0000248816802781144816070472800002057
:1007C000074810B5016841F010010160032000F0F6
:1007D000B7F8002000F006F800F03EF8002010BD49
:1007E0000020024000B5014687B000221E2000F024
:1007F00087F81E2000F078F81348C16941F0040121
:10080000C161C06905A900F004000690684600F0C7
:1008100053F900F077F90D494000B0FBF1F10D48B4
:100820000B4A491E0260416040F2E7320021C0E9F4
:100830000321816000F060FB10B1012007B000BD12
:10084000044800F075FBF9E70010024040420F0039
:100850000008004078060020214808B5816941F071
:1008600001018161816901F001010091C16941F0DB
:100870008051C161C06900F080500090032000F0F9
:100880005FF8002211466FF00B0000F039F80022EB
:1008900011466FF00A0000F033F8002211466FF0A5
:1008A000090000F02DF800221146501F00F028F832
:1008B00000221146101F00F023F800220F21901E85
:1008C00000F01EF800220F21501E00F019F8054814
:1008D000416821F0E06141F00071416008BD000015
:1008E000001002400000014000F01F020121914071
:1008F0004009800000F1E020C0F8001170470000BE
:10090000F0B40E4B1B680C46C3F30223C3F107057A
:10091000042D00D90425191D072901D2002300E068
:10092000DB1E012606FA05F1491E214099409E4032
:10093000761E16403143F0BC00F06ABE0CED00E0BC
:10094000064900F0070208684FF6FF03184040EA26
:100950000220034A10430860704700000CED00E0DD
:100960000000FA052DE9F047DFF83C8105460E4608
:10097000D8F8000000F00700B0420CD2D8F8001000
:1009800021F007013143C8F80010D8F8000000F04A
:100990000700B04263D12878444C800705D56068D1
:1009A000A96820F0F000084360602878C00745D0AF
:1009B0006868012816D02168022816D08907002906
:1009C0004DDA616821F0030101436160FFF7EAFE3F
:1009D0006968074641F2883001290FD00229814613
:1009E00019D027E021688903E9E78901E7E700BF1B
:1009F000FFF7D8FEC11B494501D918E08146606860
:100A0000C0F381000128F3D118E000BFFFF7CAFE50
:100A1000C11B49450BD86068C0F381000228F5D19D
:100A20000CE000BFFFF7BEFEC11B494502D9032001
:100A3000BDE8F087606810F00C0FF3D1D8F8001013
:100A4000404601F00701B1420BD9016821F00701CE
:100A500031430160006800F00700B04201D001207E
:100A6000E6E72878400705D56068E96820F4E0608B
:100A7000084360602878000706D56068296920F47B
:100A8000605040EAC100606000F05CF86168084AAC
:100A9000C1F30311515CC840064908600020FFF70C
:100AA000A1FE0020C4E70000002002400010024028
:100AB000D0350008340000200F2202600C4A536831
:100AC00003F003034360536803F0F003836053684B
:100AD00003F4E063C36052684FF4E06303EAD202B8
:100AE00002610448006800F00700086070470000D9
:100AF00000100240002002400148006870470000DA
:100B0000340000200448054900684968044AC1F3DC
:100B10000221515CC84070473400002000100240A0
:100B2000E03500080448054900684968044AC1F3F3
:100B3000C221515CC84070473400002000100240C0
:100B4000E035000812A185B00FC98DE80F0014A090
:100B5000144A006804905168134801F00C03042BF8
:100B600010D0082B0ED1C1F38343C9031DF8030035
:100B70000AD5516804AAC1F34041515C0A4A504366
:100B8000B0FBF1F005B0704708494843FAE70000B0
:100B900002030405060708090A0B0C0D0E0F1010BE
:100BA000010200000010024000127A0000093D001E
:100BB0002DE9F84F04460078B94DC00748D0686861
:100BC000C0F38100012807D06868C0F381000228C3
:100BD00009D16868C00306D52868800338D56068E5
:100BE00000286FD034E06068B0F5803F0BD010B1C2
:100BF000B0F5A02F11D0286820F480302860286834
:100C000020F4802002E0286840F48030286060688A
:100C100088B1FFF7C7FD064609E0286840F4802048
:100C20002860F0E7FFF7BEFD801B642875D82868B0
:100C30008003F7D50CE0FFF7B5FD064605E000BFE1
:100C4000FFF7B0FD801B6428F0D828688003F7D434
:100C50002078944E80074FF001094FF000083BD5F3
:100C6000686810F00C0F07D06868C0F38100022894
:100C700009D16868C00306D42868800714D52069A4
:100C800001281FD110E02069B0B1C6F80090FFF72D
:100C900089FD074605E000BFFFF784FDC01B022861
:100CA000C4D828688007F7D52868616920F0F80063
:100CB00040EAC10028600FE0C6F80080FFF772FD2F
:100CC000074606E0E9E000BFFFF76CFDC01B022805
:100CD00023D828688007F7D4207800072CD57248DD
:100CE000A169D9B1C0F80090FFF75CFD074604E0A8
:100CF000FFF758FDC01B02280FD8686A8007F7D598
:100D00006A484FF4FA510068B0FBF1F0009000BF60
:100D10000098411E0091FAD20EE080E0C0F80080F9
:100D2000FFF740FD074604E0FFF73CFDC01B02282B
:100D300075D8686A8007F7D42078400760D5E869DD
:100D40000027C00008D4E86940F08050E861E869F5
:100D5000012700F08050009055480168C90513D460
:100D60000168834641F480710160FFF71BFD8246F4
:100D700006E000BFFFF716FDA0EB0A0064284ED87E
:100D8000DBF80000C005F5D5E06801280AD008B1FD
:100D9000052813D0286A20F001002862286A20F074
:100DA000040002E0286A40F001002862E06841F295
:100DB000883B98B1FFF7F6FC82460BE0286A40F0CA
:100DC00004002862EEE700BFFFF7ECFCA0EB0A018D
:100DD00059455AD8286A8007F6D50CE0FFF7E2FC9F
:100DE000824605E0FFF7DEFCA0EB0A0159454CD82E
:100DF000286A8007F6D41FB1E86920F08050E861C6
:100E0000E06988B36968C1F38101022945D00228ED
:100E1000C6F8608004D0FFF7C5FC044638E034E033
:100E2000FFF7C0FC074604E0FFF7BCFCC01B02282C
:100E30002BD828688001F7D4206AB0F5803F05D10F
:100E40006868A16820F4003008436860D4E90801AC
:100E50000843696821F4741108436860C6F860901B
:100E6000FFF7A0FC044606E015E000BFFFF79AFC80
:100E7000001B022809D828688001F7D50BE000BFC5
:100E8000FFF790FC001B022802D90320BDE8F88F71
:100E900028688001F4D40020F8E70120F6E700007C
:100EA0000010024000004242800442423400002010
:100EB000007000404FF0E0210428086903D020F0C2
:100EC00004000861704740F00400FAE710B5401EC6
:100ED000B0F1807F01D3012010BD4FF0E0246061AC
:100EE0000F21601700F094FB0020A0610720206113
:100EF000002010BD7047704710B5040003D094F86F
:100F00003D0010B107E0012010BD002084F83C0036
:100F1000204600F00CF8022084F83D00211D2068D6
:100F200000F0E6FB012084F83D00002010BD704772
:100F30000168CA6842F00102CA600068016841F0B5
:100F40000101016000207047704770B504460068D9
:100F500001694FF00005C943890715D4C168C94329
:100F6000890711D4E91E016101202077206880697A
:100F70008007204602D0FFF7E7FF04E000F098F872
:100F8000204600F096F8257720680169C943490793
:100F900017D4C168C943490713D46FF00401016134
:100FA000022020772068806910F4407F204602D01C
:100FB000FFF7CAFF04E000F07BF8204600F079F864
:100FC000257720680169C943090716D4C168C94358
:100FD000090712D46FF0080101610420207720680E
:100FE000C0698007204602D0FFF7AEFF04E000F0A2
:100FF0005FF8204600F05DF8257720680169C94355
:10100000C90617D4C168C943C90613D46FF01001CB
:101010000161082020772068C06910F4407F2046D5
:1010200002D0FFF791FF04E000F042F8204600F004
:1010300040F8257720680169C943C90708D1C1680C
:10104000C943C90704D1891E0161204600F032F866
:1010500020680169C943090609D4C168C943090662
:1010600005D46FF0800101612046FFF743FF20683F
:101070000169C943490609D4C168C943490605D471
:101080006FF040010161204600F01EF82068016900
:10109000C94389060BD4C168C943890607D46FF0D8
:1010A000200101612046BDE87040FFF724BF70BDFC
:1010B0007047704700680349884201D1FFF778BB49
:1010C0007047000000080040704710B504460068F3
:1010D000416994F83920C1F3C011212A0BD151B1D3
:1010E000416921F080014161206B08B1FFF7F2F8FE
:1010F000204600F0ADFB2068416994F83A20C1F326
:101100008011222A0BD151B1416921F04001416186
:10111000606B08B1FFF7DEF8204600F08BFB002083
:1011200010BD704770B5026804461068D1685369F5
:1011300010F00F0F50D003F0010501F49076354305
:101140005DD0C20705D0CA0503D5E26B42F00102AB
:10115000E263420705D5DA0703D0E26B42F00202F0
:10116000E263820705D5DA0703D0E26B42F004029E
:10117000E263020705D5DA0703D0E26B42F008020A
:10118000E263E26B002A33D0800604D5880602D5DC
:10119000204600F066FB20684069E16BC0F38010D8
:1011A000090700D428B3204600F044FB20684169B9
:1011B00049061AD5416921F040014161606BA0B137
:1011C0001B494163606BFFF79DF8002810D0606BEE
:1011D000416BBDE870400847830610D58B060ED5DD
:1011E0002046BDE8704000F03CBB2046FFF799FF69
:1011F00070BD2046FFF795FF0020E06370BD030639
:1012000006D50B0604D52046BDE8704000F02CBC86
:101210004006F3D54806F1D5D168204621F04001BB
:10122000D160202184F8391000F030F970BD000041
:101230005D17000870B5040004D094F8390000254B
:1012400010B106E0012070BD84F83850204600F04F
:1012500023F8242084F839002068C16821F4005163
:10126000C160204600F048FB2068016921F49041EC
:1012700001612068416921F02A0141612068C1684B
:1012800041F40051C160E563202084F8390084F8FE
:101290003A00002070BD0000F0B5064600682B49FA
:1012A00085B0884250D12A48816941F480418161EA
:1012B0008069284D00F4804004904FF40070009045
:1012C000022001900320039069462846FFF78CF91D
:1012D00000242815CDE90004694628460294FFF74A
:1012E00083F91E4D1C48802701C5102091C51B485D
:1012F00045F810496C61AC61EC61FFF7F9F818B181
:101300007F2117A000F018FC35636E62134D124860
:1013100044351430C5E90004C5E902472C616C610D
:10132000AC612846EC61FFF7E3F818B18F210CA0FF
:1013300000F002FC75630022052125206E62FFF794
:10134000DFFA2520FFF7D0FA05B0F0BD00380140E4
:10135000001002400008014044000240F005002057
:101360002E2E2F5372632F75736172742E630000DB
:10137000F8B5044690F83A0020283CD1C1B3BAB37E
:1013800094F83800012836D0012084F83800A16292
:10139000A2850025E563222084F83A00636B174894
:1013A0009862636B1648D862636B16481863606B6B
:1013B000134645630846666B216802463046091DA0
:1013C000FFF7C8F8206801684168009184F8385038
:1013D000C16841F48071C1602068416941F0010138
:1013E00041612068416941F0400141610020F8BD40
:1013F000FFE70120FBE70220F9E70000B71700082C
:10140000F31700086D1700087047704770B5044661
:1014100090F83900202830D169B362B394F83800CD
:1014200001282AD0012084F838002162A284E284B5
:101430000025E563212084F83900236B1048986269
:10144000236B1048D862236B0F481863206B134638
:1014500045632668206B321DFFF77CF821686FF02A
:101460004000086084F838502068416941F08001EC
:101470004161002070BD012070BD022070BD0000E0
:10148000FD1700082B1800086D17000870477047FB
:10149000FEE700000D4808B5416941F001014161D6
:1014A0004069002200F00100009005210E20FFF7A6
:1014B00027FA0E20FFF718FA002205210F20FFF768
:1014C0001FFABDE808400F20FFF70EBA00100240D7
:1014D00030B59FB00025012119A8199500F007FC2F
:1014E0002A4C0121A0611AA81A9500F000FCE061C5
:1014F00001211BA81B9500F0FAFB206201211CA80A
:101500001C9500F0F4FB6062214800220121006874
:101510001D901DA800F07CFC1D4960611422091D6E
:101520006846FEF74BFE0021684600F059FC18495A
:1015300020601422183105A8FEF740FE002105A8FE
:1015400000F04EFC1249606014222C310AA8FEF70C
:1015500035FE00210AA800F043FC0D49A0601422CA
:1015600040310FA8FEF72AFE00210FA800F038FC3A
:101570000749E0601422543114A8FEF71FFE002131
:1015800014A800F02DFC20611FB030BD0000002029
:1015900068350008094808B5816941F0200181617A
:1015A000816901F020010091816941F004018161AC
:1015B000806900F00400009008BD000000100240A7
:1015C0000D4810B50B4901604FF4E1314160002135
:1015D00081600C22C160C0E904128161C161FFF722
:1015E00029FE002805D0BDE81040542103A000F0DA
:1015F000A3BA10BD00380140B00500202E2E2F5395
:1016000072632F75736172742E630000FEE770477A
:101610000907090E002806DA00F00F0000F1E020AB
:1016200080F8141D704700F1E02080F80014704726
:1016300000F0CCBB30B58FB001210804CDE900101B
:101640000024029402250491CDE907504FF4E010E4
:1016500009906846FFF7ACFA00B1FEE70F20CDE92C
:101660000A054FF48060CDE90C4002210AA80E94CF
:10167000FFF778F900B1FEE7FFF73EFA4FF47A7111
:10168000B0FBF1F0FFF722FC0420FFF713FC00226F
:101690000F21501EFFF734F90FB030BD0D4801681F
:1016A00041F00101016041680B4A1140416001684D
:1016B0000A4A11400160016821F4802101604168FB
:1016C00021F4FE0141604FF41F0181600449C00311
:1016D00008607047001002400000FFF8FFFFF6FEB0
:1016E00008ED00E00148FFF730BC0000780600205C
:1016F000F0B50268164B174C174D4FF080479842D3
:1017000005D0B84203D0A04201D0A84203D122F0B4
:1017100070064A683243984205D0B84203D0A042CE
:1017200001D0A84203D122F44074CA68224322F0B7
:1017300080044A69224302608A68C2620A6882623F
:10174000984201D10969016301214161F0BD0000A6
:10175000002C0140000400400008004010B5406A21
:101760000021C185C184FFF7DCFC10BD70B5446A5F
:101770002068406994F83910C0F3C0100025212971
:1017800004D118B1E584204600F062F82068406971
:1017900094F83A10C0F38010222904D118B1E585DD
:1017A000204600F047F8E06B40F01000E063204670
:1017B000FFF7B7FC70BD10B50146406A09680968BB
:1017C000890613D40021C1850168CA6822F4807299
:1017D000CA6001684A6922F001024A6101684A69E7
:1017E00022F040024A61202180F83A10FFF70CFEF7
:1017F00010BD10B5406AFFF708FE10BD10B50146D8
:10180000406A0968096889060CD40021C18401680E
:101810004A6922F080024A610068C16841F04001D3
:10182000C16010BDFFF732FE10BD10B5406AFFF772
:101830002EFE10BD0168CA6822F49072CA60016869
:101840004A6922F001024A61202180F83A1070476B
:101850000168CA6822F0C002CA60202180F83910ED
:10186000704710B590F83A10222901D0022010BD1F
:101870008168B1F5805F11D00169002901681FD02E
:10188000496801F07F03816A4A1C82620B70C18D36
:10189000491E0904090CC18518D02BE00269816A30
:1018A000002A0268526805D0D2B20A80816A491CB7
:1018B0008162ECE7C2F308020A80816A891CF7E7BB
:1018C0004A68816A4B1C83620A70E0E70168CA6853
:1018D00022F02002CA600168CA6822F48072CA60DD
:1018E00001684A6922F001024A61202180F83A1019
:1018F000FFF78AFD002010BD2DE9F0410446006885
:101900000169E26821F44051114301612169A06835
:101910000843616908432168CA6841F20C639A432D
:101920000243CA6020684169A26921F440711143F1
:1019300041614C4920686425322688423CD1FFF73A
:10194000F1F800EBC00101EB001061688900B0FB09
:10195000F1F7FFF7E7F800EBC00101EB0010616859
:10196000B0468900B0FBF1F0B0FBF5F06FF0180164
:10197000484307EB800106EB0110B0FBF5F000F0E7
:10198000F006FFF7CFF800EBC00101EB0010616833
:101990008900B0FBF1F0B0FBF5F006EB0016FFF7A5
:1019A000C1F800EBC00101EB001061688900B0FBD9
:1019B000F1F7FFF7B7F83BE0FFF7A4F800EBC00141
:1019C00001EB001061688900B0FBF1F7FFF79AF8AE
:1019D00000EBC00101EB00106168B0468900B0FB6C
:1019E000F1F0B0FBF5F06FF01801484307EB800110
:1019F00006EB0110B0FBF5F000F0F006FFF782F8FF
:101A000000EBC00101EB001061688900B0FBF1F050
:101A1000B0FBF5F006EB0016FFF774F800EBC00121
:101A200001EB001061688900B0FBF1F7FFF76AF87D
:101A300000EBC00101EB001061688900B0FBF1F020
:101A4000B0FBF5F06FF01801484307EB800108EB9D
:101A50000110B0FBF5F0216800F00F003044886001
:101A6000BDE8F0810038014090F83910212901D0FB
:101A7000022070478168B1F5805F016A0BD04A1C73
:101A80000262026809785160C18C491E0904090C80
:101A9000C1840ED017E009880268C1F308015160C3
:101AA00001690029016A02D0491C0162ECE7891C26
:101AB000FBE70168CA6822F08002CA600068C1685A
:101AC00041F04001C16000207047000010B504489B
:101AD00000F00AF8BDE810400148FFF723BB000002
:101AE000B0050020FEE7000038B500680068C0437C
:101AF000C0061BD40E4C2068016840680090204648
:101B0000FFF7E3FA606B00684068A4F20444C0F594
:101B1000806060800748006800F0FCF8211DBDE887
:101B200038404FF480620248FFF722BC38BD000005
:101B3000B005002024000020FEE700000FB41CB513
:101B40000246002007AC00290BD0491ECDE9002138
:101B5000054B6A462146069800F017F8009A0021C6
:101B600011701CBC5DF814FB611C000802E008C881
:101B7000121F08C1002AFAD170477047002001E007
:101B800001C1121F002AFBD170472DE9F84F994679
:101B9000924688460546002706E025280AD0514689
:101BA0004A4690476D1C7F1C28780028F5D138469E
:101BB000BDE8F88F002315F8011F18462E2915D10E
:101BC00015F8011F04232A290DD06FF02F02297860
:101BD000A1F13004092C09D800EB800002EB400091
:101BE00008446D1CF3E758F8040B6D1C2A78002A92
:101BF000DDD0632A07D0732A0FD0104651464A46DB
:101C000090477F1C2AE018F8042B8DF80020002153
:101C10008DF801106E46012103E058F8046B4FF077
:101C2000FF315A074FF0000401D409E0641C8442DC
:101C30000BDA8C42FADB325D002AF7D105E0641C36
:101C40008C42FCDB305D0028F9D1274404E016F813
:101C5000010B51464A469047641EF8D26D1CA3E71B
:101C60004A68002A06D00A68531C0B601070486846
:101C7000401E48607047EFF30580002800D0012027
:101C800070470000FEF79CFDFFF7D4FCFFF782FCD5
:101C9000FFF700FCFFF794FC4FF480620849094805
:101CA000FFF766FB07480068C16841F01001C1609A
:101CB0000A20FEF787FCFFF70BFC00F013F8FEE7A5
:101CC000B0010020B005002001460020842900D08A
:101CD000C81C7047704710B500B9012000F0CCFD5A
:101CE000002010BD10B500F07BFE002010BD10B527
:101CF000012901D0002010BD03220021012000F0A5
:101D00002DFF040004D000231A46194601F044F8C0
:101D1000204610BD38B5002405460094FFF7ABFF00
:101D200090B16946284601F045F9012801D0FF200D
:101D300038BD009888B10A494FF080500860BFF361
:101D40004F8FBFF36F8F08E000231A4619462846CD
:101D500001F022F8012800D0FF24204638BD000001
:101D600004ED00E038B505004FF0000000900FD002
:101D70000024481C0ED001B10C46FFF77CFFB8B11F
:101D80006A460021284601F063F9012818D104E0D1
:101D9000802038BD4FF0FF34EFE7009890B10A493A
:101DA0004FF080500860BFF34F8FBFF36F8F09E093
:101DB000002322461946284600F0F4FE012801D0EF
:101DC000FF2038BD002038BD04ED00E010B501F063
:101DD000EFF9012803D0BDE8104000F0A9BE10BD06
:101DE0003EB504460D46B0F90800FFF76DFF02A9A5
:101DF000CDE90001208A2B4682B2D4E9001001F01F
:101E0000ABF9012801D000203EBD02983EBD000084
:101E100008B500680090012907D00020134602464B
:101E2000012103A001F024FB08BD0120F6E700001A
:101E3000000000002DE9F041184C0F460546E66809
:101E40002068001D00F002FC38B9206890F82C10C2
:101E500001208840216981432161681C07D137B185
:101E60002168BDE8F0410E48091D00F027BC20683C
:101E70003544B5424560216805D2A06BBDE8F0410C
:101E8000091D00F003BC606B091D00F0FFFBA06A98
:101E9000854200D2A562BDE8F08100005C00002010
:101EA000D42F00202DE9F041054600F013FC2E4C04
:101EB000A068401CA06020682C4F10B1606940B33E
:101EC0002DE02560A068012829D1002606EB8600B8
:101ED00007EB800000F0CCFB761C072EF6D32348DE
:101EE0008C3000F0C5FB2148A03000F0C1FB1F483A
:101EF000B43000F0BDFB1D48C83000F0B9FB1B48F2
:101F0000DC3000F0B5FB19488C3060631430A063FE
:101F100005E02068E96AC06A884200D82560606AE6
:101F2000401C6062E96A01202269884010432061F8
:101F300001EB810007EB8000291D00F0BFFB00F0E2
:101F4000E9FB606900280CD02068E96AC06A884211
:101F500007D207494FF080500860BFF34F8FBFF39F
:101F60006F8FBDE8F08100005C000020F82E00209B
:101F700004ED00E010B500F0ADFB0E4C2068A0B9F8
:101F80000D4800F075FB0C48143000F071FB0A4856
:101F9000E0601430206100220C210A2000F0DEFDF8
:101FA000206010B105A100F031FCBDE8104000F048
:101FB000B1BB000098000020E82F0020546D725142
:101FC0000000000070B5114E114C17E000F040FD0C
:101FD0003068B8B101F0EAF900F07CFBF068C56840
:101FE000281D00F033FBA068401EA0606068401E02
:101FF000606000F08FFB284600F055F8606800280C
:10200000E4D170BD01F0D2F9F8E70000C02F002044
:102010005C00002030B4026C0B46002A0BD0C16873
:102020001144C1604468A14201D30168C16030BC61
:102030001846FEF7C3B830BC70472DE9F041856BF8
:10204000174604460026026C82B1C7B1E068FEF76D
:10205000B5F8E168206C091AE1602268914202D269
:102060006168081AE060022F16D017E02068A8B94E
:10207000606801F015F90646002060600EE0A06877
:10208000FEF79CF8216CA0680844A0606168884253
:1020900004D32068A06001E005B16D1E6D1CA5632E
:1020A0003046BDE8F08110B50446006B00F046FBF9
:1020B0002046BDE8104000F041BB000010484FF43E
:1020C0002051420706D0C01D0D4920F00700411ADB
:1020D000C1F520510B4A00230144C2E9000308392D
:1020E000103A21F0070111604B600B600B1AC0E938
:1020F000001393604FF000405360D06070470000C1
:10210000B806002048000020074C4FF08056074DCD
:10211000FFF758FF20680128FAD92E60BFF34F8FD0
:10212000BFF36F8FF4E70000F82E002004ED00E00D
:102130002DE9F0479A46DDE9098481466FF00303F3
:10214000206B03EB82021044089D20F00706700705
:1021500007D0502080F31188BFF34F8FBFF36F8FEC
:10216000FEE723180A5C83F834200A5C12B1401C95
:102170002028F6D3002784F85370072D00D30625B6
:10218000E562C4E91557201D00F07DFA04F118003E
:1021900000F079FA2461C5F107006462A061E76587
:1021A00084F8607052464946304600F03DFA20609F
:1021B000B8F1000F01D0C8F80040BDE8F08700007A
:1021C00030B5114900E011460A688242FBD34B68E2
:1021D0005C18844203D1406818444860084643684C
:1021E0001C18944209D1084C103C2468A24209D022
:1021F00052681A4442600A6812680260814200D044
:10220000086030BD0460F9E74800002070B5002484
:1022100041600B4D0061914206D8D11A826991420A
:1022200006D2011D286907E09A4203D2994201D3E0
:10223000012403E0011DE86800F028FA204670BD83
:102240009800002010B5044600F044FAA06B28B1B5
:102250005FF0000400F05EFA204610BD0124F9E7AB
:1022600030B587B02B4D4BE00498002848DB069C26
:10227000606910B1201D00F0E9F902A800F0B6F87D
:10228000024604980A283BD2DFE800F00505053A2B
:10229000263705053A260598A169034601442046DC
:1022A000FFF7B4FF00B3616A20468847E069012860
:1022B00026D1002000900598A169002342181946F4
:1022C000204601F021F978B9502080F31188BFF33E
:1022D0004F8FBFF36F8FFEE70598A06128B181187B
:1022E00013462046FFF792FF0AE0502080F3118842
:1022F000BFF34F8FBFF36F8FFEE7204600F01EFA4B
:1023000000231A4604A9286800F04CFC0028ABD131
:1023100007B030BD980000202DE9FC410F4605466E
:1023200000F096FB01A800F061F80446019818B18E
:1023300001F03CF8BDE8FC81224EAFB13069006885
:10234000A8B30027291B3A46306800F073FA01F061
:102350002DF80028EED11C494FF080500860BFF3E3
:102360004F8FBFF36F8FE5E7A542EBD801F01EF862
:10237000F0682746C068C468201D00F067F9E0696E
:10238000012810D1A0692B4641193A462046FFF793
:102390003DFF40B100200346014600902A462046FA
:1023A00001F0B2F820B1616A20468847C2E707E031
:1023B000502080F31188BFF34F8FBFF36F8FFEE77C
:1023C0000127BFE79800002004ED00E00648416BBC
:1023D000096829B1416BC968C96849688162704759
:1023E0004FF0FF31FAE700005C00002070B50546B1
:1023F00000F0ECFE064E0446B068844203D200F0C2
:1024000009F8012000E0002028602046B46070BD7B
:1024100098000020F8B5194D1FE0C068C468066830
:10242000201D00F013F9616A20468847E069012801
:1024300013D1A0693044B04206D924616060211DE7
:10244000E86800F023F908E0002003460146009008
:102450003246204601F058F838B1E8680168002992
:10246000DBD12969C5E90310F8BD502080F311883C
:10247000BFF34F8FBFF36F8FFEE70000980000207F
:1024800008484068401C4FF0500080F3118804D089
:10249000BFF34F8FBFF36F8FFEE7BFF34F8FBFF3D5
:1024A0006F8FFEE750000020074CE068016841B1E3
:1024B000C0680021D0F80000FFF72EFFFFF7D0FE24
:1024C000F3E701210020F7E7980000202DE9F04113
:1024D000044600F0FFF894F9455004F1240609E0A1
:1024E000606A48B1304600F027FF08B100F0EAF911
:1024F0006D1E6DB2002DF3DC4FF0FF3684F84560A1
:1025000000F008F900F0E6F894F9445004F11007DF
:1025100009E0206948B1384600F00EFF08B100F02C
:10252000D1F96D1E6DB2002DF3DC84F84460BDE876
:10253000F04100F0EFB800002DE9F041054600271A
:1025400000F086FA314E306808B9FFF7B7FDF06841
:1025500005424BD1C5B3083568070ED005F007001A
:10256000C0F108000544680707D0502080F31188A7
:10257000BFF34F8FBFF36F8FFEE72DB370688542B7
:1025800034D82248103001460C6801E020460C4641
:102590006168A94202D221680029F7D131688C42D2
:1025A00024D007682168016060680837411B102942
:1025B0000FD96019420708D0502080F31188BFF36B
:1025C0004F8FBFF36F8FFEE710E041606560FFF74C
:1025D000F7FD61687068401A7060B268904200D27E
:1025E000B060F06801430020C4E9000100F0DEFEA5
:1025F000780707D0502080F31188BFF34F8FBFF3C7
:102600006F8FFEE73846BDE8F081000038000020FB
:102610000449086818B10868826D521C8265086810
:10262000704700005C00002010B5031F4FF080745D
:102630001C601B1F21F001011960191F024B0B6068
:10264000143940380A6010BD81240008D0E90132F5
:1026500001699A60D0E901235A604A68824201D137
:1026600082684A60002202610868401E0860704764
:1026700000F108014FF0FF32C0E90112C1600161B1
:1026800000210160704700210161704730B50B687F
:102690005A1C02D000F1080202E0026904E022465E
:1026A000546825689D42FAD953684B6099608A60E6
:1026B000516008610168491C016030BD42684A6090
:1026C00093688B6093685960916008610168491C48
:1026D00001607047502080F31188BFF34F8FBFF324
:1026E0006F8F0A494868401C486001280CD108488F
:1026F000006810F0FF0F07D0502080F31188BFF35F
:102700004F8FBFF36F8FFEE770470000500000202F
:1027100004ED00E00849486828B1401E486001D136
:1027200080F311887047502080F31188BFF34F8FDA
:10273000BFF36F8FFEE700005000002070B5002847
:1027400027D0144DA0F108046168E868014207D160
:10275000502080F31188BFF34F8FBFF36F8FFEE7D8
:1027600022683AB1502080F31188BFF34F8FBFF336
:102770006F8FFEE78143616000F06AF96068696805
:10278000084468602046FFF71BFDBDE8704000F07C
:102790000DBE70BD3800002006484FF47A71006805
:1027A000B0FBF1F14FF0E020491E416107210161CA
:1027B000704700003400002010B5FDF7E9FC114916
:1027C00010280ED300F1E02090F8F0030A78904230
:1027D00007D2502080F31188BFF34F8FBFF36F8F64
:1027E000FEE709480068896800F4E060884207D97C
:1027F000502080F31188BFF34F8FBFF36F8FFEE738
:1028000010BD0000500000200CED00E010B5084B9A
:10281000002200BF53F832401CB1521C082AF9D3E1
:1028200010BD43F8321003EBC201486010BD000038
:10283000B82E002070B515460E460446FFF74AFF35
:1028400094F944100020491C01D184F8440094F903
:102850004510491C01D184F84500FFF75BFFA06BD0
:1028600028B92A46314604F1240000F049F82046F0
:10287000BDE87040FFF72ABE10B5020014D00F4823
:10288000006B38B1502080F31188BFF34F8FBFF336
:102890006F8FFEE700F0DCF800211046FFF7CAFA60
:1028A00000F084FD002807D105494FF080500860F2
:1028B000BFF34F8FBFF36F8F10BD00005C0000208F
:1028C00004ED00E001490120C86170475C00002070
:1028D00010B50C4650B1094909681831FFF7D6FE0A
:1028E0002046BDE810400121FFF7A4BA502080F334
:1028F0001188BFF34F8FBFF36F8FFEE75C0000209E
:1029000070B514460D4668B10A4909681831FFF7D9
:10291000D5FE0CB14FF0FF3521462846BDE870408A
:10292000FFF788BA502080F31188BFF34F8FBFF3B1
:102930006F8FFEE75C00002070B5040039D01D4D9C
:10294000E06A2968C96A884233D2A069002804DB9A
:102950002868C06AC0F10700A061E16A164E01EB69
:102960008101606906EB810188421FD1201DFFF7BC
:102970006DFE012150B9E06A00EB800256F822207A
:1029800022B92A6901FA00F082432A612868C06AE4
:10299000E0622A6981401143296100EB800006EB67
:1029A0008000211DBDE87040FFF788BE2868C06A1E
:1029B000E06270BD5C000020F82E002028B10749BD
:1029C0000A6A0260C96841607047502080F311882C
:1029D000BFF34F8FBFF36F8FFEE700005C00002056
:1029E0001CB517480024CDE900402346802215A1DC
:1029F000164800F0B1FB012803D100F061FD012869
:102A000009D0401C1AD1502080F31188BFF34F8F9A
:102A1000BFF36F8FFEE7502080F31188BFF34F8F15
:102A2000BFF36F8F06484FF0FF312C3881620121D0
:102A30004161C460BDE81C4000F040B81CBD00000E
:102A40008800002049444C4500000000092100088E
:102A50000248016B491C0163704700005C000020C4
:102A60001448016B11B10121C16170470021C1619E
:102A70000169B1FA81F1C1F11F0101EB81020E4937
:102A800051F822306BB101EB820101F108034A6871
:102A900052684A609A4201D152684A60D168016026
:102AA0007047502080F31188BFF34F8FBFF36F8FB3
:102AB000FEE700005C000020F82E00201CB519493C
:102AC00008780190FF20087008788DF800009DF8C4
:102AD0000000154A00F0500010700720906005E0DB
:102AE0009DF800305B008DF80030401E9DF80030EE
:102AF0001B06F5D4000200F4E060906001980870B5
:102B00000A48016841F470010160016841F07041B8
:102B10000160FFF741FE00205060FDF703FB00203D
:102B20001CBD000000E400E05000002020ED00E0AB
:102B300010B5502080F31188BFF34F8FBFF36F8F14
:102B400000F04AFB18B104494FF0805008600020A3
:102B500080F3118810BD000004ED00E070B50E4652
:102B6000050013D0D6B105FB06F04830FFF7E4FCB2
:102B7000040009D004F1480120468EB10160C0E98B
:102B80000F56012100F0C4F8204670BD502080F39C
:102B90001188BFF34F8FBFF36F8FFEE70020E4E78C
:102BA0000060ECE72DE9FF4F002683B09B468A4684
:102BB000040003D0BAF1000F08D011E0502080F3D8
:102BC0001188BFF34F8FBFF36F8FFEE7206C38B1D2
:102BD000502080F31188BFF34F8FBFF36F8FFEE754
:102BE00000F0E6FADFF824814FF000094FF080573B
:102BF00048B9059838B1502080F31188BFF34F8F42
:102C0000BFF36F8FFEE7FFF765FDA56B45B3514638
:102C10002046E668FFF7FEF9BBF1000F13D0E6602F
:102C2000606A50B104F1240000F086FB28B1C8F8B6
:102C30000070BFF34F8FBFF36F8FFFF76BFD012065
:102C400007B0BDE8F08F6D1EA563206810B9FFF7CF
:102C5000DFFC606020690028EFD004F11000E3E79A
:102C6000059808B11EB106E0FFF754FD27E068465D
:102C7000FFF7A4FE0126FFF74DFDFFF7E9FEFFF782
:102C800029FD94F94400401C01D184F8449094F942
:102C90004500401C01D184F84590FFF73BFD05A994
:102CA000684600F023FA002820460AD0FFF70EFC01
:102CB00000F07CFB2046FFF7C5FA0028A3D00020D7
:102CC000BEE7FFF7BFFAD8B1206830B9FFF702FDC1
:102CD0006068FFF731FEFFF71DFD04F12400059940
:102CE000FFF7F6FD2046FFF7F1FB00F05FFB002841
:102CF00089D1C8F80070BFF34F8FBFF36F8F82E7A1
:102D00002046FFF7E3FB00F051FB7CE704ED00E019
:102D100070B50D46040025D0FFF7DCFCD4E90F2088
:102D2000216802FB001161600021A1632168A1609C
:102D30000A46D4E90F01401E00FB0121E160214653
:102D40004FF0FF3001F8440F487004F110008DB1CE
:102D5000FFF78EFC04F12400FFF78AFCFFF7DAFC92
:102D6000012070BD502080F31188BFF34F8FBFF357
:102D70006F8FFEE721690029F0D000F0DDFA00280E
:102D8000ECD004494FF080500860BFF34F8FBFF381
:102D90006F8FE3E704ED00E02DE9FF4782B01D46A9
:102DA0008A464FF00008040003D0BAF1000F08D0A3
:102DB00011E0502080F31188BFF34F8FBFF36F8F66
:102DC000FEE7206C38B1502080F31188BFF34F8F9D
:102DD000BFF36F8FFEE7022D0AD1E06B012807D009
:102DE000502080F31188BFF34F8FBFF36F8FFEE742
:102DF00000F0DEF93F4F4FF000094FF0805648B920
:102E0000049838B1502080F31188BFF34F8FBFF37F
:102E10006F8FFEE7FFF75EFCA06BE16B884207D384
:102E2000022D05D00498D0B1B8F1000F1AD01EE0E1
:102E30002A4651462046FFF700F9616A19B104F1AC
:102E4000240000F079FA20B13E60BFF34F8FBFF34A
:102E50006F8FFFF75FFC012006B0BDE8F087FFF73A
:102E600059FC22E06846FFF7A9FD4FF00108FFF783
:102E700051FCFFF7EDFDFFF72DFC94F94400401CD9
:102E800001D184F8449094F94500401C01D184F8A4
:102E90004590FFF73FFC04A9684600F027F930B1E0
:102EA0002046FFF713FB00F081FA0020D4E7FFF77C
:102EB00011FCA06BE16B884213D1FFF72BFC04F1EE
:102EC00010000499FFF704FD2046FFF7FFFA00F019
:102ED0006DFA00289ED13E60BFF34F8FBFF36F8F16
:102EE00098E7FFF717FC2046FFF7F0FA00F05EFACC
:102EF00090E7000004ED00E02DE9F0471F46904602
:102F00008946040003D0B9F1000F08D011E0502029
:102F100080F31188BFF34F8FBFF36F8FFEE7206CF4
:102F200038B1502080F31188BFF34F8FBFF36F8FFC
:102F3000FEE7022F0AD1E06B012807D0502080F372
:102F40001188BFF34F8FBFF36F8FFEE7FFF734FC9D
:102F50005020EFF3118680F31188BFF34F8FBFF33A
:102F60006F8FA06BE16B884206D3022F04D0002044
:102F700086F31188BDE8F08794F945503A464946F2
:102F80002046FFF75AF8681C04D06D1C84F84550A1
:102F90000120EDE7606A0028FAD004F1240000F077
:102FA000CBF90028F4D0B8F1000FF1D00121C8F816
:102FB0000010EDE770B50E46040009D0206C78B122
:102FC000502080F31188BFF34F8FBFF36F8FFEE760
:102FD000502080F31188BFF34F8FBFF36F8FFEE750
:102FE000206848B9606838B1502080F31188BFF379
:102FF0004F8FBFF36F8FFEE7FFF7DEFB5020EFF33D
:10300000118580F31188BFF34F8FBFF36F8FA16BD2
:10301000E06B884218D994F94500491CA163411C12
:1030200004D0401C84F8450001200EE0606A0028AE
:10303000FAD004F1240000F07FF90028F4D0002E2B
:10304000F2D001203060EFE7002085F3118870BDD9
:103050002DE9F04790468946040003D0B9F1000FEE
:1030600008D011E0502080F31188BFF34F8FBFF3D9
:103070006F8FFEE7206C38B1502080F31188BFF3CA
:103080004F8FBFF36F8FFEE7FFF796FB5020EFF3F4
:10309000118680F31188BFF34F8FBFF36F8FA76B3B
:1030A000F7B194F9445049462046FEF7B3FF7F1E1E
:1030B000A763681C04D06D1C84F84450012010E004
:1030C00020690028FAD004F1100000F035F900283A
:1030D000F4D0B8F1000FF1D00121C8F80010EDE7ED
:1030E000002086F31188BDE8F087000070B50D461A
:1030F000040019D005B3FFF7EDFA164AD168286825
:10310000431C0FD02368126A934202D062688A423D
:103110001AD96268891A814216D2401A286020465C
:10312000FFF74CFC002410E0502080F31188BFF31F
:103130004F8FBFF36F8FFEE7502080F31188BFF3EE
:103140004F8FBFF36F8FFEE70124FFF7E3FA2046AE
:1031500070BD00005C0000202DE9FF5F8346DDE9C3
:103160000E87994616468A469000FFF7E5F9050056
:103170001AD06420FFF7E0F9040012D02563002183
:10318000CDE90241CDE900874B46324651465846CB
:10319000FEF7CEFF2046FEF785FE012004B0BDE815
:1031A000F09F2846FFF7CAFA4FF0FF30F6E700001D
:1031B0000548416919B1006B18B100207047012022
:1031C00070470220704700005C0000200148C06882
:1031D000704700005C0000202DE9F0412E4C0027D4
:1031E000206B40B1A069401CA061E06900B10127DB
:1031F0003846BDE8F081E668761CE66013D1606B66
:10320000006838B1502080F31188BFF34F8FBFF3AF
:103210006F8FFEE7606BA16B6163A063206A401C47
:103220002062FFF7D3F8A06ADFF87080864209D3E6
:10323000606B006880B1606BC068C5686868864272
:103240000DD2A0622068C06A00EB800158F821000E
:103250000128CAD90127C8E74FF0FF30F1E7281D40
:10326000FFF7F4F9A86A18B105F11800FFF7EEF9B5
:10327000E86A0121226981401143216100EB80014C
:1032800008EB8100291DFFF719FAE86A2168C96A6D
:103290008842CDD30127CBE75C000020F82E002028
:1032A00070B504004FF0000140D0214D28688442E1
:1032B00007D0502080F31188BFF34F8FBFF36F8F7B
:1032C000FEE7A06D38B1401EA065636DE26A9A42C8
:1032D0002CD040B12AE0502080F31188BFF34F8FEB
:1032E000BFF36F8FFEE7201DFFF7B0F9114A0121F0
:1032F00050B9E06A00EB800352F8233023B92B6900
:1033000001FA00F083432B61606DE062C0F10700B9
:10331000A061E06A2B6981401943296100EB8000BC
:1033200002EB8000211DFFF7C9F90121084670BD9D
:103330005C000020F82E00202DE9F041C068C46830
:10334000ACB104F118000746FFF780F9154D286B62
:103350000126A0B139461448FFF7B0F9E06A2968A0
:10336000C96A88421CD90120EE61BDE8F081502075
:1033700080F31188BFF34F8FBFF36F8FFEE7201DDF
:10338000FFF764F9E16A2A6906FA01F0104328613F
:1033900001EB81000449B43901EB8000211DDBE71A
:1033A0000020E2E75C000020AC2F00202DE9F04770
:1033B0002C4D00242746286B38B1FFF78BF9286B7A
:1033C000401E2863286B40B146E0502080F31188EE
:1033D000BFF34F8FBFF36F8FFEE7A968224E012026
:1033E000D1B3A6F1B40980463068E8B1F068C4688A
:1033F00004F11800FFF72AF9201DFFF727F9E06A0A
:103400002A6908FA00F11143296100EB800109EBF8
:103410008100211DFFF752F9E06A2968C96A8842D4
:10342000E2D3C5F81C80DFE70CB1FEF7CFFFAC6933
:1034300044B14646FFF7D0FE00B1EE61641EF9D1FB
:103440000020A861E86938B10849012738070860F9
:10345000BFF34F8FBFF36F8FFFF75CF93846BDE8BE
:10346000F08700005C000020AC2F002004ED00E09D
:103470002DE9F0470746994616460D462820DDF807
:1034800020A0FFF759F804000ED0B8464F46D146A9
:103490006DB1FEF76FFD04F11801C4F8008081E8FA
:1034A000E002201DFFF7EFF82046BDE8F08750202E
:1034B00080F31188BFF34F8FBFF36F8FFEE70000DB
:1034C0001CB5FEF757FD0C48006860B10A490220A0
:1034D000091DCDE90001C201002308A10948FFF739
:1034E0003BFE002807D1502080F31188BFF34F8F97
:1034F000BFF36F8FFEE71CBD98000020546D722053
:1035000053766300A9240008FEB51E461346020048
:10351000089D4FF0000014D0124C2768002F0FD0E8
:10352000CDE900130292062915DAFFF741FE0228C1
:103530004FF000030DD0002269462068FFF72CFCF5
:10354000FEBD502080F31188BFF34F8FBFF36F8F04
:10355000FEE72A46F0E70023324669463846FFF781
:10356000CBFCFEBD98000020D51C0008E835000803
:10357000650200080000000000000000800000005C
:10358000FC350008CD02000800000000000000002B
:10359000800000002C3600085D02000800000000DA
:1035A0000000000080000000403600086D020008A6
:1035B0000000000000000000800000000C36000841
:1035C00075020008000000000000000080000000FC
:1035D00000000000000000000102030406070809C3
:1035E00000000000010203045461736B5F476574BF
:1035F00053656E736F727344617461005461736BD1
:103600005F5265706F727444617461005461736BD2
:103610005F525850726F6475637450726F746F6349
:103620006F6C416E616C7973650000005461736B5F
:103630005F44657669636553657474696E670000FD
:103640005461736B5F4E6574776F726B4C696E6B10
:10365000000000007436000800000020AC000000EC
:103660006C1B000820370008AC0000206433000009
:103670007C1B0008000000000000000000000000AB
:10368000000000000000000000000000000000003A
:103690000000000000000000000000000100000029
:1036A000100000000000000000A24A04000000001A
:1036B000000000000000000000000000000000000A
:1036C0000000000000000000AAAAAAAA0000000052
:1036D00000000000000000000000000000000000EA
:1036E00000000000000000000000000000000000DA
:1036F00000000000000000000000000000000000CA
:1037000000000000000000000000000000000000B9
:1037100000000000000000000000000000000000A9
:04000005080000ED02
:00000001FF
